{
  "abi": [
    {
      "inputs": [],
      "stateMutability": "nonpayable",
      "type": "constructor"
    },
    {
      "stateMutability": "payable",
      "type": "fallback"
    },
    {
      "inputs": [
        {
          "internalType": "address",
          "name": "a",
          "type": "address"
        }
      ],
      "name": "accessMapping",
      "outputs": [
        {
          "internalType": "uint256",
          "name": "",
          "type": "uint256"
        }
      ],
      "stateMutability": "view",
      "type": "function"
    },
    {
      "inputs": [],
      "name": "active",
      "outputs": [
        {
          "internalType": "bool",
          "name": "",
          "type": "bool"
        }
      ],
      "stateMutability": "view",
      "type": "function"
    },
    {
      "inputs": [],
      "name": "activeToggle",
      "outputs": [],
      "stateMutability": "nonpayable",
      "type": "function"
    },
    {
      "inputs": [
        {
          "internalType": "address",
          "name": "",
          "type": "address"
        }
      ],
      "name": "addressToDeposit",
      "outputs": [
        {
          "internalType": "uint256",
          "name": "",
          "type": "uint256"
        }
      ],
      "stateMutability": "view",
      "type": "function"
    },
    {
      "inputs": [
        {
          "internalType": "address",
          "name": "",
          "type": "address"
        }
      ],
      "name": "addressToMintCount",
      "outputs": [
        {
          "internalType": "uint256",
          "name": "",
          "type": "uint256"
        }
      ],
      "stateMutability": "view",
      "type": "function"
    },
    {
      "inputs": [
        {
          "internalType": "uint256",
          "name": "",
          "type": "uint256"
        }
      ],
      "name": "claimedDepositAmount",
      "outputs": [
        {
          "internalType": "uint256",
          "name": "",
          "type": "uint256"
        }
      ],
      "stateMutability": "view",
      "type": "function"
    },
    {
      "inputs": [
        {
          "internalType": "uint256",
          "name": "",
          "type": "uint256"
        }
      ],
      "name": "depositlist",
      "outputs": [
        {
          "internalType": "address",
          "name": "",
          "type": "address"
        }
      ],
      "stateMutability": "view",
      "type": "function"
    },
    {
      "inputs": [],
      "name": "getClaimedDepositAmountLength",
      "outputs": [
        {
          "internalType": "uint256",
          "name": "",
          "type": "uint256"
        }
      ],
      "stateMutability": "view",
      "type": "function"
    },
    {
      "inputs": [],
      "name": "getClaimedDepositList",
      "outputs": [
        {
          "internalType": "uint256[]",
          "name": "a",
          "type": "uint256[]"
        }
      ],
      "stateMutability": "view",
      "type": "function"
    },
    {
      "inputs": [],
      "name": "getIndex",
      "outputs": [
        {
          "internalType": "uint256",
          "name": "index",
          "type": "uint256"
        }
      ],
      "stateMutability": "view",
      "type": "function"
    },
    {
      "inputs": [
        {
          "internalType": "uint256",
          "name": "val",
          "type": "uint256"
        }
      ],
      "name": "getValidDeposit",
      "outputs": [
        {
          "internalType": "bool",
          "name": "valid",
          "type": "bool"
        },
        {
          "internalType": "uint256",
          "name": "count",
          "type": "uint256"
        }
      ],
      "stateMutability": "view",
      "type": "function"
    },
    {
      "inputs": [],
      "name": "getWhitelist",
      "outputs": [
        {
          "internalType": "address[]",
          "name": "a",
          "type": "address[]"
        }
      ],
      "stateMutability": "view",
      "type": "function"
    },
    {
      "inputs": [],
      "name": "getWhitelistLength",
      "outputs": [
        {
          "internalType": "uint256",
          "name": "",
          "type": "uint256"
        }
      ],
      "stateMutability": "view",
      "type": "function"
    },
    {
      "inputs": [],
      "name": "isDepositlisted",
      "outputs": [
        {
          "internalType": "bool",
          "name": "funder",
          "type": "bool"
        }
      ],
      "stateMutability": "view",
      "type": "function"
    },
    {
      "inputs": [],
      "name": "isWhitelisted",
      "outputs": [
        {
          "internalType": "bool",
          "name": "funder",
          "type": "bool"
        }
      ],
      "stateMutability": "view",
      "type": "function"
    },
    {
      "inputs": [],
      "name": "redeem",
      "outputs": [],
      "stateMutability": "nonpayable",
      "type": "function"
    },
    {
      "inputs": [],
      "name": "transferBalance",
      "outputs": [],
      "stateMutability": "nonpayable",
      "type": "function"
    },
    {
      "inputs": [
        {
          "internalType": "address[]",
          "name": "newWhitelist",
          "type": "address[]"
        },
        {
          "internalType": "uint256[]",
          "name": "newClaimedDepositAmount",
          "type": "uint256[]"
        }
      ],
      "name": "updateLists",
      "outputs": [],
      "stateMutability": "nonpayable",
      "type": "function"
    },
    {
      "inputs": [
        {
          "internalType": "uint256",
          "name": "",
          "type": "uint256"
        }
      ],
      "name": "whitelist",
      "outputs": [
        {
          "internalType": "address",
          "name": "",
          "type": "address"
        }
      ],
      "stateMutability": "view",
      "type": "function"
    }
  ],
  "bytecode": {
    "object": "0x6000805461ff00191661010090811790915561012060405260016080908152600260a052600360c052600460e08190526005928390526200004392909190620000d0565b506040805160a08101825267016345785d8a000081526702c68af0bb1400006020820152670429d069189e00009181019190915267058d15e17628000060608201526706f05b59d3b200006080820152620000a290600590816200013a565b50348015620000b057600080fd5b506000805462010000600160b01b0319163362010000021790556200019a565b82805482825590600052602060002090810192821562000128579160200282015b828111156200012857825182546001600160a01b0319166001600160a01b03909116178255602090920191600190910190620000f1565b506200013692915062000183565b5090565b82805482825590600052602060002090810192821562000128579160200282015b828111156200012857825182906001600160401b03169055916020019190600101906200015b565b5b8082111562000136576000815560010162000184565b61137480620001aa6000396000f3fe6080604052600436106101145760003560e01c806381045ead116100a0578063d01f63f511610064578063d01f63f514610492578063dbd3484c146104b4578063f5b8dcee146104d4578063f75da1b3146104e9578063fe87ce7b1461051657610114565b806381045ead146104295780638c5c7b651461043e578063a13202e914610453578063ac6a990f14610468578063be040fb01461047d57610114565b80634de2673d116100e75780634de2673d1461036e578063596ea40a146103a6578063611b4095146103dd57806366adeb8c146103f25780637ebd1b301461040957610114565b806302fb0c5e146102a75780630a419e04146102db57806317f5d680146103165780632610672e1461034c575b600054610100900460ff166101705760405162461bcd60e51b815260206004820152601a60248201527f4465706f73697420436f6e747261637420496e6163746976652100000000000060448201526064015b60405180910390fd5b610178610536565b6101b85760405162461bcd60e51b81526020600482015260116024820152704e6f74206f6e2077686974656c6973742160781b6044820152606401610167565b6000806101c43461059d565b91509150816102155760405162461bcd60e51b815260206004820152601c60248201527f496e76616c696420636f6e747269627574696f6e20616d6f756e7421000000006044820152606401610167565b600180548082019091557fb10e2d527612073b26eecdfd717e6a320cf44b4afac2b0732d9fcbe2b7fa0cf60180546001600160a01b03191633908117909155600090815260026020908152604080832084905560039091529020349055600461027c6106e3565b8154811061028c5761028c61104c565b600091825260209091200180546001600160a01b0319169055005b3480156102b357600080fd5b506000546102c690610100900460ff1681565b60405190151581526020015b60405180910390f35b3480156102e757600080fd5b506103086102f636600461107e565b60036020526000908152604090205481565b6040519081526020016102d2565b34801561032257600080fd5b5061030861033136600461107e565b6001600160a01b031660009081526002602052604090205490565b34801561035857600080fd5b5061036161078b565b6040516102d291906110a0565b34801561037a57600080fd5b5061038e6103893660046110e4565b6107e3565b6040516001600160a01b0390911681526020016102d2565b3480156103b257600080fd5b506103c66103c13660046110e4565b61059d565b6040805192151583526020830191909152016102d2565b3480156103e957600080fd5b506102c6610536565b3480156103fe57600080fd5b5061040761080d565b005b34801561041557600080fd5b5061038e6104243660046110e4565b6108df565b34801561043557600080fd5b506103086106e3565b34801561044a57600080fd5b50600554610308565b34801561045f57600080fd5b50600454610308565b34801561047457600080fd5b506104076108ef565b34801561048957600080fd5b5061040761093c565b34801561049e57600080fd5b506104a7610b38565b6040516102d291906110fd565b3480156104c057600080fd5b506104076104cf366004611214565b610b99565b3480156104e057600080fd5b506102c6610c3c565b3480156104f557600080fd5b5061030861050436600461107e565b60026020526000908152604090205481565b34801561052257600080fd5b506103086105313660046110e4565b610c9b565b6000805b60045481101561059557336001600160a01b0316600482815481106105615761056161104c565b6000918252602090912001546001600160a01b03160361058357600191505090565b8061058d816112ea565b91505061053a565b506000905090565b60008060056105aa6106e3565b815481106105ba576105ba61104c565b906000526020600020015483111561062e5760405162461bcd60e51b815260206004820152603160248201527f436f6e747269627574696f6e2067726561746572207468616e20436c61696d6560448201527064204465706f73697420416d6f756e742160781b6064820152608401610167565b60005b60058110156106d7576040805160a08101825267016345785d8a000081526702c68af0bb1400006020820152670429d069189e00009181019190915267058d15e17628000060608201526706f05b59d3b200006080820152816005811061069a5761069a61104c565b602002015167ffffffffffffffff1684036106c55760016106bb8282611303565b9250925050915091565b806106cf816112ea565b915050610631565b50600093849350915050565b60006106ed610536565b61072c5760405162461bcd60e51b815260206004820152601060248201526f139bdd0813db8815da1a5d195b1a5cdd60821b6044820152606401610167565b60005b60045481101561078757336001600160a01b0316600482815481106107565761075661104c565b6000918252602090912001546001600160a01b03160361077557919050565b8061077f816112ea565b91505061072f565b5090565b606060058054806020026020016040519081016040528092919081815260200182805480156107d957602002820191906000526020600020905b8154815260200190600101908083116107c5575b5050505050905090565b600181815481106107f357600080fd5b6000918252602090912001546001600160a01b0316905081565b6000546201000090046001600160a01b0316331461083d5760405162461bcd60e51b81526004016101679061131b565b60008054604051620100009091046001600160a01b03169047908381818185875af1925050503d806000811461088f576040519150601f19603f3d011682016040523d82523d6000602084013e610894565b606091505b50509050806108dc5760405162461bcd60e51b81526020600482015260146024820152732330b4b632b2103a379039b2b7321022ba3432b960611b6044820152606401610167565b50565b600481815481106107f357600080fd5b6000546201000090046001600160a01b0316331461091f5760405162461bcd60e51b81526004016101679061131b565b6000805461ff001981166101009182900460ff1615909102179055565b60005460ff16156109805760405162461bcd60e51b815260206004820152600e60248201526d4e6f2072652d656e7472616e637960901b6044820152606401610167565b6000805460ff191660011790819055610100900460ff166109e35760405162461bcd60e51b815260206004820152601a60248201527f4465706f73697420436f6e747261637420496e616374697665210000000000006044820152606401610167565b6109eb610536565b610a2a5760405162461bcd60e51b815260206004820152601060248201526f4e6f742057686974656c69737465642160801b6044820152606401610167565b610a32610c3c565b610a745760405162461bcd60e51b81526020600482015260136024820152724e6f74204465706f736974204c69737465642160681b6044820152606401610167565b60004711610ad05760405162461bcd60e51b815260206004820152602360248201527f4f7574206f662046756e64696e672120506c65617365204e6f74696679205465604482015262616d2160e81b6064820152608401610167565b33600081815260036020526040808220549051919283929091908381818185875af1925050503d8060008114610b22576040519150601f19603f3d011682016040523d82523d6000602084013e610b27565b606091505b50506000805460ff19169055505050565b606060048054806020026020016040519081016040528092919081815260200182805480156107d957602002820191906000526020600020905b81546001600160a01b03168152600190910190602001808311610b72575050505050905090565b6000546201000090046001600160a01b03163314610bc95760405162461bcd60e51b81526004016101679061131b565b8051825114610c265760405162461bcd60e51b815260206004820152602360248201527f4c69737473204e6f742053616d65204c656e6774682120504c4541534520434860448201526245434b60e81b6064820152608401610167565b610c2f82610cbc565b610c3881610e49565b5050565b6000805b60015481101561059557336001600160a01b031660018281548110610c6757610c6761104c565b6000918252602090912001546001600160a01b031603610c8957600191505090565b80610c93816112ea565b915050610c40565b60058181548110610cab57600080fd5b600091825260209091200154905081565b6000546201000090046001600160a01b03163314610cec5760405162461bcd60e51b81526004016101679061131b565b8051600454600091610cfd91611303565b67ffffffffffffffff811115610d1557610d1561113e565b604051908082528060200260200182016040528015610d3e578160200160208202803683370190505b50905060005b600454811015610dbb5760048181548110610d6157610d6161104c565b9060005260206000200160009054906101000a90046001600160a01b0316828281518110610d9157610d9161104c565b6001600160a01b039092166020928302919091019091015280610db3816112ea565b915050610d44565b60005b8351811015610e2f578381610dd2816112ea565b925081518110610de457610de461104c565b6020026020010151838380610df8906112ea565b945081518110610e0a57610e0a61104c565b60200260200101906001600160a01b031690816001600160a01b031681525050610dbe565b8251610e42906004906020860190610f9b565b5050505050565b6000546201000090046001600160a01b03163314610e795760405162461bcd60e51b81526004016101679061131b565b8051600554600091610e8a91611303565b67ffffffffffffffff811115610ea257610ea261113e565b604051908082528060200260200182016040528015610ecb578160200160208202803683370190505b50905060005b600554811015610f285760058181548110610eee57610eee61104c565b9060005260206000200154828281518110610f0b57610f0b61104c565b602090810291909101015280610f20816112ea565b915050610ed1565b60005b8351811015610f88578381610f3f816112ea565b925081518110610f5157610f5161104c565b6020026020010151838380610f65906112ea565b945081518110610f7757610f7761104c565b602002602001018181525050610f2b565b8251610e42906005906020860190610ffc565b828054828255906000526020600020908101928215610ff0579160200282015b82811115610ff057825182546001600160a01b0319166001600160a01b03909116178255602090920191600190910190610fbb565b50610787929150611037565b828054828255906000526020600020908101928215610ff0579160200282015b82811115610ff057825182559160200191906001019061101c565b5b808211156107875760008155600101611038565b634e487b7160e01b600052603260045260246000fd5b80356001600160a01b038116811461107957600080fd5b919050565b60006020828403121561109057600080fd5b61109982611062565b9392505050565b6020808252825182820181905260009190848201906040850190845b818110156110d8578351835292840192918401916001016110bc565b50909695505050505050565b6000602082840312156110f657600080fd5b5035919050565b6020808252825182820181905260009190848201906040850190845b818110156110d85783516001600160a01b031683529284019291840191600101611119565b634e487b7160e01b600052604160045260246000fd5b604051601f8201601f1916810167ffffffffffffffff8111828210171561117d5761117d61113e565b604052919050565b600067ffffffffffffffff82111561119f5761119f61113e565b5060051b60200190565b600082601f8301126111ba57600080fd5b813560206111cf6111ca83611185565b611154565b82815260059290921b840181019181810190868411156111ee57600080fd5b8286015b8481101561120957803583529183019183016111f2565b509695505050505050565b6000806040838503121561122757600080fd5b823567ffffffffffffffff8082111561123f57600080fd5b818501915085601f83011261125357600080fd5b813560206112636111ca83611185565b82815260059290921b8401810191818101908984111561128257600080fd5b948201945b838610156112a75761129886611062565b82529482019490820190611287565b965050860135925050808211156112bd57600080fd5b506112ca858286016111a9565b9150509250929050565b634e487b7160e01b600052601160045260246000fd5b6000600182016112fc576112fc6112d4565b5060010190565b60008219821115611316576113166112d4565b500190565b6020808252600990820152682737ba1037bbb732b960b91b60408201526060019056fea2646970667358221220d66b2f07d34ca04589df15aac2ee0c7040a25a67c7287be5b87b46088d700ed364736f6c634300080d0033",
    "linkReferences": {}
  },
  "methodIdentifiers": {
    "accessMapping(address)": "17f5d680",
    "active()": "02fb0c5e",
    "activeToggle()": "ac6a990f",
    "addressToDeposit(address)": "0a419e04",
    "addressToMintCount(address)": "f75da1b3",
    "claimedDepositAmount(uint256)": "fe87ce7b",
    "depositlist(uint256)": "4de2673d",
    "getClaimedDepositAmountLength()": "8c5c7b65",
    "getClaimedDepositList()": "2610672e",
    "getIndex()": "81045ead",
    "getValidDeposit(uint256)": "596ea40a",
    "getWhitelist()": "d01f63f5",
    "getWhitelistLength()": "a13202e9",
    "isDepositlisted()": "f5b8dcee",
    "isWhitelisted()": "611b4095",
    "redeem()": "be040fb0",
    "transferBalance()": "66adeb8c",
    "updateLists(address[],uint256[])": "dbd3484c",
    "whitelist(uint256)": "7ebd1b30"
  },
  "id": 6
}