{
  "abi": [
    {
      "inputs": [],
      "stateMutability": "nonpayable",
      "type": "constructor"
    },
    {
      "stateMutability": "payable",
      "type": "fallback"
    },
    {
      "inputs": [],
      "name": "active",
      "outputs": [
        {
          "internalType": "bool",
          "name": "",
          "type": "bool"
        }
      ],
      "stateMutability": "view",
      "type": "function"
    },
    {
      "inputs": [],
      "name": "activeToggle",
      "outputs": [],
      "stateMutability": "nonpayable",
      "type": "function"
    },
    {
      "inputs": [
        {
          "internalType": "address",
          "name": "",
          "type": "address"
        }
      ],
      "name": "addressToMintCount",
      "outputs": [
        {
          "internalType": "uint256",
          "name": "",
          "type": "uint256"
        }
      ],
      "stateMutability": "view",
      "type": "function"
    },
    {
      "inputs": [
        {
          "internalType": "uint256",
          "name": "",
          "type": "uint256"
        }
      ],
      "name": "claimedDepositAmount",
      "outputs": [
        {
          "internalType": "uint256",
          "name": "",
          "type": "uint256"
        }
      ],
      "stateMutability": "view",
      "type": "function"
    },
    {
      "inputs": [
        {
          "internalType": "uint256",
          "name": "",
          "type": "uint256"
        }
      ],
      "name": "depositList",
      "outputs": [
        {
          "internalType": "address",
          "name": "",
          "type": "address"
        }
      ],
      "stateMutability": "view",
      "type": "function"
    },
    {
      "inputs": [],
      "name": "getIndex",
      "outputs": [
        {
          "internalType": "uint256",
          "name": "index",
          "type": "uint256"
        }
      ],
      "stateMutability": "view",
      "type": "function"
    },
    {
      "inputs": [
        {
          "internalType": "uint256",
          "name": "val",
          "type": "uint256"
        }
      ],
      "name": "getValidDeposit",
      "outputs": [
        {
          "internalType": "bool",
          "name": "valid",
          "type": "bool"
        },
        {
          "internalType": "uint256",
          "name": "count",
          "type": "uint256"
        }
      ],
      "stateMutability": "view",
      "type": "function"
    },
    {
      "inputs": [],
      "name": "isWhitelisted",
      "outputs": [
        {
          "internalType": "bool",
          "name": "funder",
          "type": "bool"
        }
      ],
      "stateMutability": "view",
      "type": "function"
    },
    {
      "inputs": [],
      "name": "redeem",
      "outputs": [],
      "stateMutability": "nonpayable",
      "type": "function"
    },
    {
      "inputs": [],
      "name": "transferBalance",
      "outputs": [],
      "stateMutability": "nonpayable",
      "type": "function"
    },
    {
      "inputs": [
        {
          "internalType": "address[]",
          "name": "newWhitelist",
          "type": "address[]"
        }
      ],
      "name": "updatewhitelist",
      "outputs": [],
      "stateMutability": "nonpayable",
      "type": "function"
    },
    {
      "inputs": [
        {
          "internalType": "uint256",
          "name": "",
          "type": "uint256"
        }
      ],
      "name": "whitelist",
      "outputs": [
        {
          "internalType": "address",
          "name": "",
          "type": "address"
        }
      ],
      "stateMutability": "view",
      "type": "function"
    },
    {
      "stateMutability": "payable",
      "type": "receive"
    }
  ],
  "bytecode": {
    "object": "0x6000805461ff00191661010017905560a0604052600160808181526100279160039190610078565b506040805160208101909152670429d069189e0000815261004c9060049060016100dd565b5034801561005957600080fd5b506000805462010000600160b01b031916336201000002179055610138565b8280548282559060005260206000209081019282156100cd579160200282015b828111156100cd57825182546001600160a01b0319166001600160a01b03909116178255602090920191600190910190610098565b506100d9929150610123565b5090565b8280548282559060005260206000209081019282156100cd579160200282015b828111156100cd57825182906001600160401b03169055916020019190600101906100fd565b5b808211156100d95760008155600101610124565b610c14806101476000396000f3fe6080604052600436106100ab5760003560e01c8063ac6a990f11610064578063ac6a990f146102a6578063b8ec6678146102bb578063be040fb0146102db578063d0daf153146102f0578063f75da1b314610310578063fe87ce7b1461033d576101ac565b806302fb0c5e146101b4578063596ea40a146101e8578063611b40951461021f57806366adeb8c146102345780637ebd1b301461024b57806381045ead14610283576101ac565b366101ac576100b861035d565b6100fd5760405162461bcd60e51b81526020600482015260116024820152704e6f74206f6e2077686974656c6973742160781b60448201526064015b60405180910390fd5b600080610109346103c4565b915091508161015a5760405162461bcd60e51b815260206004820152601c60248201527f496e76616c696420636f6e747269627574696f6e20616d6f756e74210000000060448201526064016100f4565b600180548082019091557fb10e2d527612073b26eecdfd717e6a320cf44b4afac2b0732d9fcbe2b7fa0cf60180546001600160a01b031916339081179091556000908152600260205260409020819055005b6100b861035d565b3480156101c057600080fd5b506000546101d390610100900460ff1681565b60405190151581526020015b60405180910390f35b3480156101f457600080fd5b50610208610203366004610a2c565b6103c4565b6040805192151583526020830191909152016101df565b34801561022b57600080fd5b506101d361035d565b34801561024057600080fd5b5061024961050a565b005b34801561025757600080fd5b5061026b610266366004610a2c565b6105dc565b6040516001600160a01b0390911681526020016101df565b34801561028f57600080fd5b50610298610606565b6040519081526020016101df565b3480156102b257600080fd5b506102496106ae565b3480156102c757600080fd5b5061026b6102d6366004610a2c565b6106fb565b3480156102e757600080fd5b5061024961070b565b3480156102fc57600080fd5b5061024961030b366004610a77565b610871565b34801561031c57600080fd5b5061029861032b366004610b3c565b60026020526000908152604090205481565b34801561034957600080fd5b50610298610358366004610a2c565b61099a565b6000805b6003548110156103bc57336001600160a01b03166003828154811061038857610388610b5e565b6000918252602090912001546001600160a01b0316036103aa57600191505090565b806103b481610b8a565b915050610361565b506000905090565b60008060046103d1610606565b815481106103e1576103e1610b5e565b90600052602060002001548311156104555760405162461bcd60e51b815260206004820152603160248201527f436f6e747269627574696f6e2067726561746572207468616e20436c61696d6560448201527064204465706f73697420416d6f756e742160781b60648201526084016100f4565b60005b60058110156104fe576040805160a08101825267016345785d8a000081526702c68af0bb1400006020820152670429d069189e00009181019190915267058d15e17628000060608201526706f05b59d3b20000608082015281600581106104c1576104c1610b5e565b602002015167ffffffffffffffff1684036104ec5760016104e28282610ba3565b9250925050915091565b806104f681610b8a565b915050610458565b50600093849350915050565b6000546201000090046001600160a01b0316331461053a5760405162461bcd60e51b81526004016100f490610bbb565b60008054604051620100009091046001600160a01b03169047908381818185875af1925050503d806000811461058c576040519150601f19603f3d011682016040523d82523d6000602084013e610591565b606091505b50509050806105d95760405162461bcd60e51b81526020600482015260146024820152732330b4b632b2103a379039b2b7321022ba3432b960611b60448201526064016100f4565b50565b600381815481106105ec57600080fd5b6000918252602090912001546001600160a01b0316905081565b600061061061035d565b61064f5760405162461bcd60e51b815260206004820152601060248201526f139bdd0813db8815da1a5d195b1a5cdd60821b60448201526064016100f4565b60005b6003548110156106aa57336001600160a01b03166003828154811061067957610679610b5e565b6000918252602090912001546001600160a01b03160361069857919050565b806106a281610b8a565b915050610652565b5090565b6000546201000090046001600160a01b031633146106de5760405162461bcd60e51b81526004016100f490610bbb565b6000805461ff001981166101009182900460ff1615909102179055565b600181815481106105ec57600080fd5b60005460ff161561074f5760405162461bcd60e51b815260206004820152600e60248201526d4e6f2072652d656e7472616e637960901b60448201526064016100f4565b6000805460ff1916600117905561076461035d565b6107a35760405162461bcd60e51b815260206004820152601060248201526f4e6f742077686974656c69737465642160801b60448201526064016100f4565b600047116107ff5760405162461bcd60e51b815260206004820152602360248201527f4f7574206f662046756e64696e672120506c65617365204e6f74696679205465604482015262616d2160e81b60648201526084016100f4565b600054610100900460ff166108655760405162461bcd60e51b815260206004820152602660248201527f526564656d7074696f6e206973206e6f742063757272656e746c7920617661696044820152656c61626c652160d01b60648201526084016100f4565b6000805460ff19169055565b6000546201000090046001600160a01b031633146108a15760405162461bcd60e51b81526004016100f490610bbb565b606060005b60035481101561091d57600381815481106108c3576108c3610b5e565b9060005260206000200160009054906101000a90046001600160a01b03168282815181106108f3576108f3610b5e565b6001600160a01b03909216602092830291909101909101528061091581610b8a565b9150506108a6565b506003545b82518110156109815782818151811061093d5761093d610b5e565b602002602001015182828151811061095757610957610b5e565b6001600160a01b03909216602092830291909101909101528061097981610b8a565b915050610922565b5080516109959060039060208401906109bb565b505050565b600481815481106109aa57600080fd5b600091825260209091200154905081565b828054828255906000526020600020908101928215610a10579160200282015b82811115610a1057825182546001600160a01b0319166001600160a01b039091161782556020909201916001909101906109db565b506106aa9291505b808211156106aa5760008155600101610a18565b600060208284031215610a3e57600080fd5b5035919050565b634e487b7160e01b600052604160045260246000fd5b80356001600160a01b0381168114610a7257600080fd5b919050565b60006020808385031215610a8a57600080fd5b823567ffffffffffffffff80821115610aa257600080fd5b818501915085601f830112610ab657600080fd5b813581811115610ac857610ac8610a45565b8060051b604051601f19603f83011681018181108582111715610aed57610aed610a45565b604052918252848201925083810185019188831115610b0b57600080fd5b938501935b82851015610b3057610b2185610a5b565b84529385019392850192610b10565b98975050505050505050565b600060208284031215610b4e57600080fd5b610b5782610a5b565b9392505050565b634e487b7160e01b600052603260045260246000fd5b634e487b7160e01b600052601160045260246000fd5b600060018201610b9c57610b9c610b74565b5060010190565b60008219821115610bb657610bb6610b74565b500190565b6020808252600990820152682737ba1037bbb732b960b91b60408201526060019056fea26469706673582212207739e7560108c8138fd044d512f178dfee8d1bcda6ced6e7a00b54750fadba7164736f6c634300080d0033",
    "linkReferences": {}
  },
  "methodIdentifiers": {
    "active()": "02fb0c5e",
    "activeToggle()": "ac6a990f",
    "addressToMintCount(address)": "f75da1b3",
    "claimedDepositAmount(uint256)": "fe87ce7b",
    "depositList(uint256)": "b8ec6678",
    "getIndex()": "81045ead",
    "getValidDeposit(uint256)": "596ea40a",
    "isWhitelisted()": "611b4095",
    "redeem()": "be040fb0",
    "transferBalance()": "66adeb8c",
    "updatewhitelist(address[])": "d0daf153",
    "whitelist(uint256)": "7ebd1b30"
  },
  "id": 6
}