{
  "abi": [
    {
      "inputs": [],
      "stateMutability": "nonpayable",
      "type": "constructor"
    },
    {
      "stateMutability": "payable",
      "type": "fallback"
    },
    {
      "inputs": [
        {
          "internalType": "address",
          "name": "a",
          "type": "address"
        }
      ],
      "name": "accessMapping",
      "outputs": [
        {
          "internalType": "uint256",
          "name": "",
          "type": "uint256"
        }
      ],
      "stateMutability": "view",
      "type": "function"
    },
    {
      "inputs": [],
      "name": "active",
      "outputs": [
        {
          "internalType": "bool",
          "name": "",
          "type": "bool"
        }
      ],
      "stateMutability": "view",
      "type": "function"
    },
    {
      "inputs": [],
      "name": "activeToggle",
      "outputs": [],
      "stateMutability": "nonpayable",
      "type": "function"
    },
    {
      "inputs": [
        {
          "internalType": "address",
          "name": "",
          "type": "address"
        }
      ],
      "name": "addressToMintCount",
      "outputs": [
        {
          "internalType": "uint256",
          "name": "",
          "type": "uint256"
        }
      ],
      "stateMutability": "view",
      "type": "function"
    },
    {
      "inputs": [
        {
          "internalType": "uint256",
          "name": "",
          "type": "uint256"
        }
      ],
      "name": "claimedDepositAmount",
      "outputs": [
        {
          "internalType": "uint256",
          "name": "",
          "type": "uint256"
        }
      ],
      "stateMutability": "view",
      "type": "function"
    },
    {
      "inputs": [
        {
          "internalType": "uint256",
          "name": "",
          "type": "uint256"
        }
      ],
      "name": "depositList",
      "outputs": [
        {
          "internalType": "address",
          "name": "",
          "type": "address"
        }
      ],
      "stateMutability": "view",
      "type": "function"
    },
    {
      "inputs": [],
      "name": "getIndex",
      "outputs": [
        {
          "internalType": "uint256",
          "name": "index",
          "type": "uint256"
        }
      ],
      "stateMutability": "view",
      "type": "function"
    },
    {
      "inputs": [
        {
          "internalType": "uint256",
          "name": "val",
          "type": "uint256"
        }
      ],
      "name": "getValidDeposit",
      "outputs": [
        {
          "internalType": "bool",
          "name": "valid",
          "type": "bool"
        },
        {
          "internalType": "uint256",
          "name": "count",
          "type": "uint256"
        }
      ],
      "stateMutability": "view",
      "type": "function"
    },
    {
      "inputs": [],
      "name": "isWhitelisted",
      "outputs": [
        {
          "internalType": "bool",
          "name": "funder",
          "type": "bool"
        }
      ],
      "stateMutability": "view",
      "type": "function"
    },
    {
      "inputs": [],
      "name": "redeem",
      "outputs": [],
      "stateMutability": "nonpayable",
      "type": "function"
    },
    {
      "inputs": [],
      "name": "transferBalance",
      "outputs": [],
      "stateMutability": "nonpayable",
      "type": "function"
    },
    {
      "inputs": [
        {
          "internalType": "address[]",
          "name": "newWhitelist",
          "type": "address[]"
        }
      ],
      "name": "updatewhitelist",
      "outputs": [],
      "stateMutability": "nonpayable",
      "type": "function"
    },
    {
      "inputs": [
        {
          "internalType": "uint256",
          "name": "",
          "type": "uint256"
        }
      ],
      "name": "whitelist",
      "outputs": [
        {
          "internalType": "address",
          "name": "",
          "type": "address"
        }
      ],
      "stateMutability": "view",
      "type": "function"
    }
  ],
  "bytecode": {
    "object": "0x6000805461ff00191661010090811790915561012060405260016080908152600260a052600360c0819052600460e052600592839052610041929091906100cb565b506040805160a08101825267016345785d8a000081526702c68af0bb1400006020820152670429d069189e00009181019190915267058d15e17628000060608201526706f05b59d3b20000608082015261009f906004906005610130565b503480156100ac57600080fd5b506000805462010000600160b01b03191633620100000217905561018b565b828054828255906000526020600020908101928215610120579160200282015b8281111561012057825182546001600160a01b0319166001600160a01b039091161782556020909201916001909101906100eb565b5061012c929150610176565b5090565b828054828255906000526020600020908101928215610120579160200282015b8281111561012057825182906001600160401b0316905591602001919060010190610150565b5b8082111561012c5760008155600101610177565b610c878061019a6000396000f3fe6080604052600436106100c25760003560e01c806381045ead1161007f578063be040fb011610059578063be040fb01461034e578063d0daf15314610363578063f75da1b314610383578063fe87ce7b146103b0576100c2565b806381045ead14610304578063ac6a990f14610319578063b8ec66781461032e576100c2565b806302fb0c5e146101f157806317f5d68014610225578063596ea40a14610269578063611b4095146102a057806366adeb8c146102b55780637ebd1b30146102cc575b6100ca6103d0565b61010f5760405162461bcd60e51b81526020600482015260116024820152704e6f74206f6e2077686974656c6973742160781b60448201526064015b60405180910390fd5b60008061011b34610437565b915091508161016c5760405162461bcd60e51b815260206004820152601c60248201527f496e76616c696420636f6e747269627574696f6e20616d6f756e7421000000006044820152606401610106565b600180548082019091557fb10e2d527612073b26eecdfd717e6a320cf44b4afac2b0732d9fcbe2b7fa0cf60180546001600160a01b03191633908117909155600090815260026020526040902081905560036101c661057d565b815481106101d6576101d6610a9f565b600091825260209091200180546001600160a01b0319169055005b3480156101fd57600080fd5b5060005461021090610100900460ff1681565b60405190151581526020015b60405180910390f35b34801561023157600080fd5b5061025b610240366004610ad1565b6001600160a01b031660009081526002602052604090205490565b60405190815260200161021c565b34801561027557600080fd5b50610289610284366004610af3565b610437565b60408051921515835260208301919091520161021c565b3480156102ac57600080fd5b506102106103d0565b3480156102c157600080fd5b506102ca610625565b005b3480156102d857600080fd5b506102ec6102e7366004610af3565b6106f7565b6040516001600160a01b03909116815260200161021c565b34801561031057600080fd5b5061025b61057d565b34801561032557600080fd5b506102ca610721565b34801561033a57600080fd5b506102ec610349366004610af3565b61076e565b34801561035a57600080fd5b506102ca61077e565b34801561036f57600080fd5b506102ca61037e366004610b22565b6108e4565b34801561038f57600080fd5b5061025b61039e366004610ad1565b60026020526000908152604090205481565b3480156103bc57600080fd5b5061025b6103cb366004610af3565b610a0d565b6000805b60035481101561042f57336001600160a01b0316600382815481106103fb576103fb610a9f565b6000918252602090912001546001600160a01b03160361041d57600191505090565b8061042781610bfd565b9150506103d4565b506000905090565b600080600461044461057d565b8154811061045457610454610a9f565b90600052602060002001548311156104c85760405162461bcd60e51b815260206004820152603160248201527f436f6e747269627574696f6e2067726561746572207468616e20436c61696d6560448201527064204465706f73697420416d6f756e742160781b6064820152608401610106565b60005b6005811015610571576040805160a08101825267016345785d8a000081526702c68af0bb1400006020820152670429d069189e00009181019190915267058d15e17628000060608201526706f05b59d3b200006080820152816005811061053457610534610a9f565b602002015167ffffffffffffffff16840361055f5760016105558282610c16565b9250925050915091565b8061056981610bfd565b9150506104cb565b50600093849350915050565b60006105876103d0565b6105c65760405162461bcd60e51b815260206004820152601060248201526f139bdd0813db8815da1a5d195b1a5cdd60821b6044820152606401610106565b60005b60035481101561062157336001600160a01b0316600382815481106105f0576105f0610a9f565b6000918252602090912001546001600160a01b03160361060f57919050565b8061061981610bfd565b9150506105c9565b5090565b6000546201000090046001600160a01b031633146106555760405162461bcd60e51b815260040161010690610c2e565b60008054604051620100009091046001600160a01b03169047908381818185875af1925050503d80600081146106a7576040519150601f19603f3d011682016040523d82523d6000602084013e6106ac565b606091505b50509050806106f45760405162461bcd60e51b81526020600482015260146024820152732330b4b632b2103a379039b2b7321022ba3432b960611b6044820152606401610106565b50565b6003818154811061070757600080fd5b6000918252602090912001546001600160a01b0316905081565b6000546201000090046001600160a01b031633146107515760405162461bcd60e51b815260040161010690610c2e565b6000805461ff001981166101009182900460ff1615909102179055565b6001818154811061070757600080fd5b60005460ff16156107c25760405162461bcd60e51b815260206004820152600e60248201526d4e6f2072652d656e7472616e637960901b6044820152606401610106565b6000805460ff191660011790556107d76103d0565b6108165760405162461bcd60e51b815260206004820152601060248201526f4e6f742077686974656c69737465642160801b6044820152606401610106565b600047116108725760405162461bcd60e51b815260206004820152602360248201527f4f7574206f662046756e64696e672120506c65617365204e6f74696679205465604482015262616d2160e81b6064820152608401610106565b600054610100900460ff166108d85760405162461bcd60e51b815260206004820152602660248201527f526564656d7074696f6e206973206e6f742063757272656e746c7920617661696044820152656c61626c652160d01b6064820152608401610106565b6000805460ff19169055565b6000546201000090046001600160a01b031633146109145760405162461bcd60e51b815260040161010690610c2e565b606060005b600354811015610990576003818154811061093657610936610a9f565b9060005260206000200160009054906101000a90046001600160a01b031682828151811061096657610966610a9f565b6001600160a01b03909216602092830291909101909101528061098881610bfd565b915050610919565b506003545b82518110156109f4578281815181106109b0576109b0610a9f565b60200260200101518282815181106109ca576109ca610a9f565b6001600160a01b0390921660209283029190910190910152806109ec81610bfd565b915050610995565b508051610a08906003906020840190610a2e565b505050565b60048181548110610a1d57600080fd5b600091825260209091200154905081565b828054828255906000526020600020908101928215610a83579160200282015b82811115610a8357825182546001600160a01b0319166001600160a01b03909116178255602090920191600190910190610a4e565b506106219291505b808211156106215760008155600101610a8b565b634e487b7160e01b600052603260045260246000fd5b80356001600160a01b0381168114610acc57600080fd5b919050565b600060208284031215610ae357600080fd5b610aec82610ab5565b9392505050565b600060208284031215610b0557600080fd5b5035919050565b634e487b7160e01b600052604160045260246000fd5b60006020808385031215610b3557600080fd5b823567ffffffffffffffff80821115610b4d57600080fd5b818501915085601f830112610b6157600080fd5b813581811115610b7357610b73610b0c565b8060051b604051601f19603f83011681018181108582111715610b9857610b98610b0c565b604052918252848201925083810185019188831115610bb657600080fd5b938501935b82851015610bdb57610bcc85610ab5565b84529385019392850192610bbb565b98975050505050505050565b634e487b7160e01b600052601160045260246000fd5b600060018201610c0f57610c0f610be7565b5060010190565b60008219821115610c2957610c29610be7565b500190565b6020808252600990820152682737ba1037bbb732b960b91b60408201526060019056fea26469706673582212205e83a1d9967ff969b07b34c696814b7652680b0bff04a5afb9496b345c769cf564736f6c634300080d0033",
    "linkReferences": {}
  },
  "methodIdentifiers": {
    "accessMapping(address)": "17f5d680",
    "active()": "02fb0c5e",
    "activeToggle()": "ac6a990f",
    "addressToMintCount(address)": "f75da1b3",
    "claimedDepositAmount(uint256)": "fe87ce7b",
    "depositList(uint256)": "b8ec6678",
    "getIndex()": "81045ead",
    "getValidDeposit(uint256)": "596ea40a",
    "isWhitelisted()": "611b4095",
    "redeem()": "be040fb0",
    "transferBalance()": "66adeb8c",
    "updatewhitelist(address[])": "d0daf153",
    "whitelist(uint256)": "7ebd1b30"
  },
  "id": 6
}