{
  "abi": [
    {
      "inputs": [],
      "stateMutability": "nonpayable",
      "type": "constructor"
    },
    {
      "stateMutability": "payable",
      "type": "fallback"
    },
    {
      "inputs": [],
      "name": "active",
      "outputs": [
        {
          "internalType": "bool",
          "name": "",
          "type": "bool"
        }
      ],
      "stateMutability": "view",
      "type": "function"
    },
    {
      "inputs": [],
      "name": "activeToggle",
      "outputs": [],
      "stateMutability": "nonpayable",
      "type": "function"
    },
    {
      "inputs": [
        {
          "internalType": "address",
          "name": "",
          "type": "address"
        }
      ],
      "name": "addressToDeposit",
      "outputs": [
        {
          "internalType": "uint256",
          "name": "",
          "type": "uint256"
        }
      ],
      "stateMutability": "view",
      "type": "function"
    },
    {
      "inputs": [
        {
          "internalType": "address",
          "name": "",
          "type": "address"
        }
      ],
      "name": "addressToMintCount",
      "outputs": [
        {
          "internalType": "uint256",
          "name": "",
          "type": "uint256"
        }
      ],
      "stateMutability": "view",
      "type": "function"
    },
    {
      "inputs": [
        {
          "internalType": "uint256",
          "name": "",
          "type": "uint256"
        }
      ],
      "name": "claimedDeposit",
      "outputs": [
        {
          "internalType": "uint256",
          "name": "",
          "type": "uint256"
        }
      ],
      "stateMutability": "view",
      "type": "function"
    },
    {
      "inputs": [
        {
          "internalType": "uint256",
          "name": "",
          "type": "uint256"
        }
      ],
      "name": "depositlist",
      "outputs": [
        {
          "internalType": "address",
          "name": "",
          "type": "address"
        }
      ],
      "stateMutability": "view",
      "type": "function"
    },
    {
      "inputs": [],
      "name": "getClaimedDepositList",
      "outputs": [
        {
          "internalType": "uint256[]",
          "name": "",
          "type": "uint256[]"
        }
      ],
      "stateMutability": "view",
      "type": "function"
    },
    {
      "inputs": [
        {
          "internalType": "address",
          "name": "a",
          "type": "address"
        }
      ],
      "name": "getCountMapping",
      "outputs": [
        {
          "internalType": "uint256",
          "name": "",
          "type": "uint256"
        }
      ],
      "stateMutability": "view",
      "type": "function"
    },
    {
      "inputs": [],
      "name": "getDepositList",
      "outputs": [
        {
          "internalType": "address[]",
          "name": "",
          "type": "address[]"
        }
      ],
      "stateMutability": "view",
      "type": "function"
    },
    {
      "inputs": [
        {
          "internalType": "address",
          "name": "a",
          "type": "address"
        }
      ],
      "name": "getDepositMapping",
      "outputs": [
        {
          "internalType": "uint256",
          "name": "",
          "type": "uint256"
        }
      ],
      "stateMutability": "view",
      "type": "function"
    },
    {
      "inputs": [],
      "name": "getIndex",
      "outputs": [
        {
          "internalType": "uint256",
          "name": "index",
          "type": "uint256"
        }
      ],
      "stateMutability": "view",
      "type": "function"
    },
    {
      "inputs": [
        {
          "internalType": "uint256",
          "name": "val",
          "type": "uint256"
        }
      ],
      "name": "getValidDeposit",
      "outputs": [
        {
          "internalType": "bool",
          "name": "valid",
          "type": "bool"
        },
        {
          "internalType": "uint256",
          "name": "count",
          "type": "uint256"
        }
      ],
      "stateMutability": "view",
      "type": "function"
    },
    {
      "inputs": [],
      "name": "getWhitelist",
      "outputs": [
        {
          "internalType": "address[]",
          "name": "",
          "type": "address[]"
        }
      ],
      "stateMutability": "view",
      "type": "function"
    },
    {
      "inputs": [],
      "name": "isDepositlisted",
      "outputs": [
        {
          "internalType": "bool",
          "name": "funder",
          "type": "bool"
        }
      ],
      "stateMutability": "view",
      "type": "function"
    },
    {
      "inputs": [],
      "name": "isWhitelisted",
      "outputs": [
        {
          "internalType": "bool",
          "name": "funder",
          "type": "bool"
        }
      ],
      "stateMutability": "view",
      "type": "function"
    },
    {
      "inputs": [],
      "name": "refund",
      "outputs": [],
      "stateMutability": "nonpayable",
      "type": "function"
    },
    {
      "inputs": [
        {
          "internalType": "address",
          "name": "to",
          "type": "address"
        }
      ],
      "name": "transferBalance",
      "outputs": [],
      "stateMutability": "nonpayable",
      "type": "function"
    },
    {
      "inputs": [
        {
          "internalType": "address[]",
          "name": "newWhitelist",
          "type": "address[]"
        },
        {
          "internalType": "uint256[]",
          "name": "newClaimedDeposit",
          "type": "uint256[]"
        }
      ],
      "name": "updateLists",
      "outputs": [],
      "stateMutability": "nonpayable",
      "type": "function"
    },
    {
      "inputs": [
        {
          "internalType": "uint256",
          "name": "",
          "type": "uint256"
        }
      ],
      "name": "whitelist",
      "outputs": [
        {
          "internalType": "address",
          "name": "",
          "type": "address"
        }
      ],
      "stateMutability": "view",
      "type": "function"
    }
  ],
  "bytecode": {
    "object": "0x6000805461ff00191661010090811790915561012060405260016080908152600260a052600360c052600460e08190526005928390526200004392909190620000d0565b506040805160a08101825267016345785d8a000081526702c68af0bb1400006020820152670429d069189e00009181019190915267058d15e17628000060608201526706f05b59d3b200006080820152620000a290600590816200013a565b50348015620000b057600080fd5b506000805462010000600160b01b0319163362010000021790556200019a565b82805482825590600052602060002090810192821562000128579160200282015b828111156200012857825182546001600160a01b0319166001600160a01b03909116178255602090920191600190910190620000f1565b506200013692915062000183565b5090565b82805482825590600052602060002090810192821562000128579160200282015b828111156200012857825182906001600160401b03169055916020019190600101906200015b565b5b8082111562000136576000815560010162000184565b61141580620001aa6000396000f3fe6080604052600436106101145760003560e01c806381045ead116100a0578063dbd3484c11610064578063dbd3484c1461046b578063e412bad11461048b578063effbd6a1146104c1578063f5b8dcee146104e1578063f75da1b3146104f657610114565b806381045ead146103ea578063a87b0cb7146103ff578063ac6a990f14610421578063b12c3a8814610436578063d01f63f51461045657610114565b8063590e1ae3116100e7578063590e1ae314610347578063596ea40a1461035e578063611b40951461039557806363b6b31f146103aa5780637ebd1b30146103ca57610114565b806302fb0c5e1461027e5780630a419e04146102b25780632610672e146102ed5780634de2673d1461030f575b600054610100900460ff1661016c5760405162461bcd60e51b81526020600482015260196024820152784465706f73697420436f6e747261637420496e61637469766560381b60448201526064015b60405180910390fd5b610174610523565b6101905760405162461bcd60e51b8152600401610163906110c3565b60008061019c3461058a565b91509150816101ed5760405162461bcd60e51b815260206004820152601b60248201527f496e76616c696420436f6e747269627574696f6e20416d6f756e7400000000006044820152606401610163565b6003805460018181019092557fc2575a0e9e593c00f959f8c92f12db2869c3395a3b0502d05e2516446f71f85b0180546001600160a01b0319163390811790915560009081526020918252604080822084905560029092522034905560046102536106d0565b81548110610263576102636110ed565b600091825260209091200180546001600160a01b0319169055005b34801561028a57600080fd5b5060005461029d90610100900460ff1681565b60405190151581526020015b60405180910390f35b3480156102be57600080fd5b506102df6102cd36600461111f565b60026020526000908152604090205481565b6040519081526020016102a9565b3480156102f957600080fd5b50610302610755565b6040516102a99190611141565b34801561031b57600080fd5b5061032f61032a366004611185565b6107ad565b6040516001600160a01b0390911681526020016102a9565b34801561035357600080fd5b5061035c6107d7565b005b34801561036a57600080fd5b5061037e610379366004611185565b61058a565b6040805192151583526020830191909152016102a9565b3480156103a157600080fd5b5061029d610523565b3480156103b657600080fd5b5061035c6103c536600461111f565b6109f2565b3480156103d657600080fd5b5061032f6103e5366004611185565b610ac0565b3480156103f657600080fd5b506102df6106d0565b34801561040b57600080fd5b50610414610ad0565b6040516102a9919061119e565b34801561042d57600080fd5b5061035c610b62565b34801561044257600080fd5b506102df610451366004611185565b610baf565b34801561046257600080fd5b50610414610bd0565b34801561047757600080fd5b5061035c6104863660046112b5565b610c30565b34801561049757600080fd5b506102df6104a636600461111f565b6001600160a01b031660009081526001602052604090205490565b3480156104cd57600080fd5b506102df6104dc36600461111f565b610ccf565b3480156104ed57600080fd5b5061029d610d34565b34801561050257600080fd5b506102df61051136600461111f565b60016020526000908152604090205481565b6000805b60045481101561058257336001600160a01b03166004828154811061054e5761054e6110ed565b6000918252602090912001546001600160a01b03160361057057600191505090565b8061057a8161138b565b915050610527565b506000905090565b60008060056105976106d0565b815481106105a7576105a76110ed565b906000526020600020015483111561061b5760405162461bcd60e51b815260206004820152603160248201527f436f6e747269627574696f6e2067726561746572207468616e20436c61696d6560448201527064204465706f73697420416d6f756e742160781b6064820152608401610163565b60005b60058110156106c4576040805160a08101825267016345785d8a000081526702c68af0bb1400006020820152670429d069189e00009181019190915267058d15e17628000060608201526706f05b59d3b2000060808201528160058110610687576106876110ed565b602002015167ffffffffffffffff1684036106b25760016106a882826113a4565b9250925050915091565b806106bc8161138b565b91505061061e565b50600093849350915050565b60006106da610523565b6106f65760405162461bcd60e51b8152600401610163906110c3565b60005b60045481101561075157336001600160a01b031660048281548110610720576107206110ed565b6000918252602090912001546001600160a01b03160361073f57919050565b806107498161138b565b9150506106f9565b5090565b606060058054806020026020016040519081016040528092919081815260200182805480156107a357602002820191906000526020600020905b81548152602001906001019080831161078f575b5050505050905090565b600381815481106107bd57600080fd5b6000918252602090912001546001600160a01b0316905081565b60005460ff161561081b5760405162461bcd60e51b815260206004820152600e60248201526d4e6f2072652d656e7472616e637960901b6044820152606401610163565b6000805460ff191660011790819055610100900460ff1661087a5760405162461bcd60e51b81526020600482015260196024820152784465706f73697420436f6e747261637420496e61637469766560381b6044820152606401610163565b610882610523565b61089e5760405162461bcd60e51b8152600401610163906110c3565b6108a6610d34565b6108e85760405162461bcd60e51b8152602060048201526013602482015272139bdd0813db8811195c1bdcda5d08131a5cdd606a1b6044820152606401610163565b600047116109445760405162461bcd60e51b815260206004820152602360248201527f4f7574204f662046756e64696e672120506c65617365204e6f74696679205465604482015262616d2160e81b6064820152608401610163565b33600081815260026020526040808220549051919283929091908381818185875af1925050503d8060008114610996576040519150601f19603f3d011682016040523d82523d6000602084013e61099b565b606091505b5091509150816109e45760405162461bcd60e51b81526020600482015260146024820152732330b4b632b2103a379039b2b7321022ba3432b960611b6044820152606401610163565b50506000805460ff19169055565b6000546201000090046001600160a01b03163314610a225760405162461bcd60e51b8152600401610163906113bc565b6000816001600160a01b03164760405160006040518083038185875af1925050503d8060008114610a6f576040519150601f19603f3d011682016040523d82523d6000602084013e610a74565b606091505b5050905080610abc5760405162461bcd60e51b81526020600482015260146024820152732330b4b632b2103a379039b2b7321022ba3432b960611b6044820152606401610163565b5050565b600481815481106107bd57600080fd5b6000546060906201000090046001600160a01b03163314610b035760405162461bcd60e51b8152600401610163906113bc565b60038054806020026020016040519081016040528092919081815260200182805480156107a357602002820191906000526020600020905b81546001600160a01b03168152600190910190602001808311610b3b575050505050905090565b6000546201000090046001600160a01b03163314610b925760405162461bcd60e51b8152600401610163906113bc565b6000805461ff001981166101009182900460ff1615909102179055565b60058181548110610bbf57600080fd5b600091825260209091200154905081565b606060048054806020026020016040519081016040528092919081815260200182805480156107a3576020028201919060005260206000209081546001600160a01b03168152600190910190602001808311610b3b575050505050905090565b6000546201000090046001600160a01b03163314610c605760405162461bcd60e51b8152600401610163906113bc565b8051825114610cbd5760405162461bcd60e51b815260206004820152602360248201527f4c69737473204e6f742053616d65204c656e6774682120504c4541534520434860448201526245434b60e81b6064820152608401610163565b610cc682610d93565b610abc81610ef0565b6000610cd9610d34565b610d185760405162461bcd60e51b815260206004820152601060248201526f4e6f742041204465706f7369746f722160801b6044820152606401610163565b506001600160a01b031660009081526002602052604090205490565b6000805b60035481101561058257336001600160a01b031660038281548110610d5f57610d5f6110ed565b6000918252602090912001546001600160a01b031603610d8157600191505090565b80610d8b8161138b565b915050610d38565b8051600454600091610da4916113a4565b67ffffffffffffffff811115610dbc57610dbc6111df565b604051908082528060200260200182016040528015610de5578160200160208202803683370190505b50905060005b600454811015610e625760048181548110610e0857610e086110ed565b9060005260206000200160009054906101000a90046001600160a01b0316828281518110610e3857610e386110ed565b6001600160a01b039092166020928302919091019091015280610e5a8161138b565b915050610deb565b60005b8351811015610ed6578381610e798161138b565b925081518110610e8b57610e8b6110ed565b6020026020010151838380610e9f9061138b565b945081518110610eb157610eb16110ed565b60200260200101906001600160a01b031690816001600160a01b031681525050610e65565b8251610ee9906004906020860190611012565b5050505050565b8051600554600091610f01916113a4565b67ffffffffffffffff811115610f1957610f196111df565b604051908082528060200260200182016040528015610f42578160200160208202803683370190505b50905060005b600554811015610f9f5760058181548110610f6557610f656110ed565b9060005260206000200154828281518110610f8257610f826110ed565b602090810291909101015280610f978161138b565b915050610f48565b60005b8351811015610fff578381610fb68161138b565b925081518110610fc857610fc86110ed565b6020026020010151838380610fdc9061138b565b945081518110610fee57610fee6110ed565b602002602001018181525050610fa2565b8251610ee9906005906020860190611073565b828054828255906000526020600020908101928215611067579160200282015b8281111561106757825182546001600160a01b0319166001600160a01b03909116178255602090920191600190910190611032565b506107519291506110ae565b828054828255906000526020600020908101928215611067579160200282015b82811115611067578251825591602001919060010190611093565b5b8082111561075157600081556001016110af565b60208082526010908201526f139bdd0813db8815da1a5d195b1a5cdd60821b604082015260600190565b634e487b7160e01b600052603260045260246000fd5b80356001600160a01b038116811461111a57600080fd5b919050565b60006020828403121561113157600080fd5b61113a82611103565b9392505050565b6020808252825182820181905260009190848201906040850190845b818110156111795783518352928401929184019160010161115d565b50909695505050505050565b60006020828403121561119757600080fd5b5035919050565b6020808252825182820181905260009190848201906040850190845b818110156111795783516001600160a01b0316835292840192918401916001016111ba565b634e487b7160e01b600052604160045260246000fd5b604051601f8201601f1916810167ffffffffffffffff8111828210171561121e5761121e6111df565b604052919050565b600067ffffffffffffffff821115611240576112406111df565b5060051b60200190565b600082601f83011261125b57600080fd5b8135602061127061126b83611226565b6111f5565b82815260059290921b8401810191818101908684111561128f57600080fd5b8286015b848110156112aa5780358352918301918301611293565b509695505050505050565b600080604083850312156112c857600080fd5b823567ffffffffffffffff808211156112e057600080fd5b818501915085601f8301126112f457600080fd5b8135602061130461126b83611226565b82815260059290921b8401810191818101908984111561132357600080fd5b948201945b838610156113485761133986611103565b82529482019490820190611328565b9650508601359250508082111561135e57600080fd5b5061136b8582860161124a565b9150509250929050565b634e487b7160e01b600052601160045260246000fd5b60006001820161139d5761139d611375565b5060010190565b600082198211156113b7576113b7611375565b500190565b6020808252600990820152682737ba1037bbb732b960b91b60408201526060019056fea2646970667358221220fa0cf7aeea749889d157e57bfb3ed6aff011cb41b977822db63e5a9e32d5e44c64736f6c634300080d0033",
    "linkReferences": {}
  },
  "methodIdentifiers": {
    "active()": "02fb0c5e",
    "activeToggle()": "ac6a990f",
    "addressToDeposit(address)": "0a419e04",
    "addressToMintCount(address)": "f75da1b3",
    "claimedDeposit(uint256)": "b12c3a88",
    "depositlist(uint256)": "4de2673d",
    "getClaimedDepositList()": "2610672e",
    "getCountMapping(address)": "e412bad1",
    "getDepositList()": "a87b0cb7",
    "getDepositMapping(address)": "effbd6a1",
    "getIndex()": "81045ead",
    "getValidDeposit(uint256)": "596ea40a",
    "getWhitelist()": "d01f63f5",
    "isDepositlisted()": "f5b8dcee",
    "isWhitelisted()": "611b4095",
    "refund()": "590e1ae3",
    "transferBalance(address)": "63b6b31f",
    "updateLists(address[],uint256[])": "dbd3484c",
    "whitelist(uint256)": "7ebd1b30"
  },
  "id": 6
}