{
  "abi": [
    {
      "inputs": [],
      "stateMutability": "nonpayable",
      "type": "constructor"
    },
    {
      "stateMutability": "payable",
      "type": "fallback"
    },
    {
      "inputs": [],
      "name": "active",
      "outputs": [
        {
          "internalType": "bool",
          "name": "",
          "type": "bool"
        }
      ],
      "stateMutability": "view",
      "type": "function"
    },
    {
      "inputs": [],
      "name": "activeToggle",
      "outputs": [],
      "stateMutability": "nonpayable",
      "type": "function"
    },
    {
      "inputs": [
        {
          "internalType": "address",
          "name": "",
          "type": "address"
        }
      ],
      "name": "addressToDeposit",
      "outputs": [
        {
          "internalType": "uint256",
          "name": "",
          "type": "uint256"
        }
      ],
      "stateMutability": "view",
      "type": "function"
    },
    {
      "inputs": [
        {
          "internalType": "address",
          "name": "",
          "type": "address"
        }
      ],
      "name": "addressToMintCount",
      "outputs": [
        {
          "internalType": "uint256",
          "name": "",
          "type": "uint256"
        }
      ],
      "stateMutability": "view",
      "type": "function"
    },
    {
      "inputs": [
        {
          "internalType": "uint256",
          "name": "",
          "type": "uint256"
        }
      ],
      "name": "claimedDeposit",
      "outputs": [
        {
          "internalType": "uint256",
          "name": "",
          "type": "uint256"
        }
      ],
      "stateMutability": "view",
      "type": "function"
    },
    {
      "inputs": [
        {
          "internalType": "uint256",
          "name": "",
          "type": "uint256"
        }
      ],
      "name": "depositlist",
      "outputs": [
        {
          "internalType": "address",
          "name": "",
          "type": "address"
        }
      ],
      "stateMutability": "view",
      "type": "function"
    },
    {
      "inputs": [],
      "name": "getClaimedDepositList",
      "outputs": [
        {
          "internalType": "uint256[]",
          "name": "a",
          "type": "uint256[]"
        }
      ],
      "stateMutability": "view",
      "type": "function"
    },
    {
      "inputs": [
        {
          "internalType": "address",
          "name": "a",
          "type": "address"
        }
      ],
      "name": "getCountMapping",
      "outputs": [
        {
          "internalType": "uint256",
          "name": "",
          "type": "uint256"
        }
      ],
      "stateMutability": "view",
      "type": "function"
    },
    {
      "inputs": [
        {
          "internalType": "address",
          "name": "a",
          "type": "address"
        }
      ],
      "name": "getDepositMapping",
      "outputs": [
        {
          "internalType": "uint256",
          "name": "",
          "type": "uint256"
        }
      ],
      "stateMutability": "view",
      "type": "function"
    },
    {
      "inputs": [],
      "name": "getIndex",
      "outputs": [
        {
          "internalType": "uint256",
          "name": "index",
          "type": "uint256"
        }
      ],
      "stateMutability": "view",
      "type": "function"
    },
    {
      "inputs": [
        {
          "internalType": "uint256",
          "name": "val",
          "type": "uint256"
        }
      ],
      "name": "getValidDeposit",
      "outputs": [
        {
          "internalType": "bool",
          "name": "valid",
          "type": "bool"
        },
        {
          "internalType": "uint256",
          "name": "count",
          "type": "uint256"
        }
      ],
      "stateMutability": "view",
      "type": "function"
    },
    {
      "inputs": [],
      "name": "getWhitelist",
      "outputs": [
        {
          "internalType": "address[]",
          "name": "a",
          "type": "address[]"
        }
      ],
      "stateMutability": "view",
      "type": "function"
    },
    {
      "inputs": [],
      "name": "isDepositlisted",
      "outputs": [
        {
          "internalType": "bool",
          "name": "funder",
          "type": "bool"
        }
      ],
      "stateMutability": "view",
      "type": "function"
    },
    {
      "inputs": [],
      "name": "isWhitelisted",
      "outputs": [
        {
          "internalType": "bool",
          "name": "funder",
          "type": "bool"
        }
      ],
      "stateMutability": "view",
      "type": "function"
    },
    {
      "inputs": [],
      "name": "redeem",
      "outputs": [],
      "stateMutability": "nonpayable",
      "type": "function"
    },
    {
      "inputs": [],
      "name": "transferBalance",
      "outputs": [],
      "stateMutability": "nonpayable",
      "type": "function"
    },
    {
      "inputs": [
        {
          "internalType": "address[]",
          "name": "newWhitelist",
          "type": "address[]"
        },
        {
          "internalType": "uint256[]",
          "name": "newclaimedDeposit",
          "type": "uint256[]"
        }
      ],
      "name": "updateLists",
      "outputs": [],
      "stateMutability": "nonpayable",
      "type": "function"
    },
    {
      "inputs": [
        {
          "internalType": "uint256",
          "name": "",
          "type": "uint256"
        }
      ],
      "name": "whitelist",
      "outputs": [
        {
          "internalType": "address",
          "name": "",
          "type": "address"
        }
      ],
      "stateMutability": "view",
      "type": "function"
    }
  ],
  "bytecode": {
    "object": "0x6000805461ff00191661010090811790915561012060405260016080908152600260a052600360c052600460e08190526005928390526200004392909190620000d0565b506040805160a08101825267016345785d8a000081526702c68af0bb1400006020820152670429d069189e00009181019190915267058d15e17628000060608201526706f05b59d3b200006080820152620000a290600590816200013a565b50348015620000b057600080fd5b506000805462010000600160b01b0319163362010000021790556200019a565b82805482825590600052602060002090810192821562000128579160200282015b828111156200012857825182546001600160a01b0319166001600160a01b03909116178255602090920191600190910190620000f1565b506200013692915062000183565b5090565b82805482825590600052602060002090810192821562000128579160200282015b828111156200012857825182906001600160401b03169055916020019190600101906200015b565b5b8082111562000136576000815560010162000184565b6113c480620001aa6000396000f3fe6080604052600436106101095760003560e01c8063ac6a990f11610095578063dbd3484c11610064578063dbd3484c14610468578063e412bad114610488578063effbd6a1146104be578063f5b8dcee146104de578063f75da1b3146104f357610109565b8063ac6a990f146103fc578063b12c3a8814610411578063be040fb014610431578063d01f63f51461044657610109565b8063596ea40a116100dc578063596ea40a14610364578063611b40951461039b57806366adeb8c146103b05780637ebd1b30146103c757806381045ead146103e757610109565b806302fb0c5e1461029b5780630a419e04146102cf5780632610672e1461030a5780634de2673d1461032c575b600054610100900460ff166101655760405162461bcd60e51b815260206004820152601a60248201527f4465706f73697420436f6e747261637420496e6163746976652100000000000060448201526064015b60405180910390fd5b61016d610520565b6101ad5760405162461bcd60e51b81526020600482015260116024820152704e6f74206f6e2077686974656c6973742160781b604482015260640161015c565b6000806101b934610587565b915091508161020a5760405162461bcd60e51b815260206004820152601c60248201527f496e76616c696420636f6e747269627574696f6e20616d6f756e742100000000604482015260640161015c565b6003805460018181019092557fc2575a0e9e593c00f959f8c92f12db2869c3395a3b0502d05e2516446f71f85b0180546001600160a01b0319163390811790915560009081526020918252604080822084905560029092522034905560046102706106cd565b815481106102805761028061109c565b600091825260209091200180546001600160a01b0319169055005b3480156102a757600080fd5b506000546102ba90610100900460ff1681565b60405190151581526020015b60405180910390f35b3480156102db57600080fd5b506102fc6102ea3660046110ce565b60026020526000908152604090205481565b6040519081526020016102c6565b34801561031657600080fd5b5061031f610775565b6040516102c691906110f0565b34801561033857600080fd5b5061034c610347366004611134565b6107cd565b6040516001600160a01b0390911681526020016102c6565b34801561037057600080fd5b5061038461037f366004611134565b610587565b6040805192151583526020830191909152016102c6565b3480156103a757600080fd5b506102ba610520565b3480156103bc57600080fd5b506103c56107f7565b005b3480156103d357600080fd5b5061034c6103e2366004611134565b6108c9565b3480156103f357600080fd5b506102fc6106cd565b34801561040857600080fd5b506103c56108d9565b34801561041d57600080fd5b506102fc61042c366004611134565b610926565b34801561043d57600080fd5b506103c5610947565b34801561045257600080fd5b5061045b610b44565b6040516102c6919061114d565b34801561047457600080fd5b506103c5610483366004611264565b610ba5565b34801561049457600080fd5b506102fc6104a33660046110ce565b6001600160a01b031660009081526001602052604090205490565b3480156104ca57600080fd5b506102fc6104d93660046110ce565b610c48565b3480156104ea57600080fd5b506102ba610cad565b3480156104ff57600080fd5b506102fc61050e3660046110ce565b60016020526000908152604090205481565b6000805b60045481101561057f57336001600160a01b03166004828154811061054b5761054b61109c565b6000918252602090912001546001600160a01b03160361056d57600191505090565b806105778161133a565b915050610524565b506000905090565b60008060056105946106cd565b815481106105a4576105a461109c565b90600052602060002001548311156106185760405162461bcd60e51b815260206004820152603160248201527f436f6e747269627574696f6e2067726561746572207468616e20436c61696d6560448201527064204465706f73697420416d6f756e742160781b606482015260840161015c565b60005b60058110156106c1576040805160a08101825267016345785d8a000081526702c68af0bb1400006020820152670429d069189e00009181019190915267058d15e17628000060608201526706f05b59d3b20000608082015281600581106106845761068461109c565b602002015167ffffffffffffffff1684036106af5760016106a58282611353565b9250925050915091565b806106b98161133a565b91505061061b565b50600093849350915050565b60006106d7610520565b6107165760405162461bcd60e51b815260206004820152601060248201526f139bdd0813db8815da1a5d195b1a5cdd60821b604482015260640161015c565b60005b60045481101561077157336001600160a01b0316600482815481106107405761074061109c565b6000918252602090912001546001600160a01b03160361075f57919050565b806107698161133a565b915050610719565b5090565b606060058054806020026020016040519081016040528092919081815260200182805480156107c357602002820191906000526020600020905b8154815260200190600101908083116107af575b5050505050905090565b600381815481106107dd57600080fd5b6000918252602090912001546001600160a01b0316905081565b6000546201000090046001600160a01b031633146108275760405162461bcd60e51b815260040161015c9061136b565b60008054604051620100009091046001600160a01b03169047908381818185875af1925050503d8060008114610879576040519150601f19603f3d011682016040523d82523d6000602084013e61087e565b606091505b50509050806108c65760405162461bcd60e51b81526020600482015260146024820152732330b4b632b2103a379039b2b7321022ba3432b960611b604482015260640161015c565b50565b600481815481106107dd57600080fd5b6000546201000090046001600160a01b031633146109095760405162461bcd60e51b815260040161015c9061136b565b6000805461ff001981166101009182900460ff1615909102179055565b6005818154811061093657600080fd5b600091825260209091200154905081565b60005460ff161561098b5760405162461bcd60e51b815260206004820152600e60248201526d4e6f2072652d656e7472616e637960901b604482015260640161015c565b6000805460ff191660011790819055610100900460ff166109ee5760405162461bcd60e51b815260206004820152601a60248201527f4465706f73697420436f6e747261637420496e61637469766521000000000000604482015260640161015c565b6109f6610520565b610a355760405162461bcd60e51b815260206004820152601060248201526f4e6f742057686974656c69737465642160801b604482015260640161015c565b610a3d610cad565b610a805760405162461bcd60e51b81526020600482015260146024820152734e6f74204f6e204465706f736974204c6973742160601b604482015260640161015c565b60004711610adc5760405162461bcd60e51b815260206004820152602360248201527f4f7574206f662046756e64696e672120506c65617365204e6f74696679205465604482015262616d2160e81b606482015260840161015c565b33600081815260026020526040808220549051919283929091908381818185875af1925050503d8060008114610b2e576040519150601f19603f3d011682016040523d82523d6000602084013e610b33565b606091505b50506000805460ff19169055505050565b606060048054806020026020016040519081016040528092919081815260200182805480156107c357602002820191906000526020600020905b81546001600160a01b03168152600190910190602001808311610b7e575050505050905090565b6000546201000090046001600160a01b03163314610bd55760405162461bcd60e51b815260040161015c9061136b565b8051825114610c325760405162461bcd60e51b815260206004820152602360248201527f4c69737473204e6f742053616d65204c656e6774682120504c4541534520434860448201526245434b60e81b606482015260840161015c565b610c3b82610d0c565b610c4481610e99565b5050565b6000610c52610cad565b610c915760405162461bcd60e51b815260206004820152601060248201526f4e6f742041204465706f7369746f722160801b604482015260640161015c565b506001600160a01b031660009081526002602052604090205490565b6000805b60035481101561057f57336001600160a01b031660038281548110610cd857610cd861109c565b6000918252602090912001546001600160a01b031603610cfa57600191505090565b80610d048161133a565b915050610cb1565b6000546201000090046001600160a01b03163314610d3c5760405162461bcd60e51b815260040161015c9061136b565b8051600454600091610d4d91611353565b67ffffffffffffffff811115610d6557610d6561118e565b604051908082528060200260200182016040528015610d8e578160200160208202803683370190505b50905060005b600454811015610e0b5760048181548110610db157610db161109c565b9060005260206000200160009054906101000a90046001600160a01b0316828281518110610de157610de161109c565b6001600160a01b039092166020928302919091019091015280610e038161133a565b915050610d94565b60005b8351811015610e7f578381610e228161133a565b925081518110610e3457610e3461109c565b6020026020010151838380610e489061133a565b945081518110610e5a57610e5a61109c565b60200260200101906001600160a01b031690816001600160a01b031681525050610e0e565b8251610e92906004906020860190610feb565b5050505050565b6000546201000090046001600160a01b03163314610ec95760405162461bcd60e51b815260040161015c9061136b565b8051600554600091610eda91611353565b67ffffffffffffffff811115610ef257610ef261118e565b604051908082528060200260200182016040528015610f1b578160200160208202803683370190505b50905060005b600554811015610f785760058181548110610f3e57610f3e61109c565b9060005260206000200154828281518110610f5b57610f5b61109c565b602090810291909101015280610f708161133a565b915050610f21565b60005b8351811015610fd8578381610f8f8161133a565b925081518110610fa157610fa161109c565b6020026020010151838380610fb59061133a565b945081518110610fc757610fc761109c565b602002602001018181525050610f7b565b8251610e9290600590602086019061104c565b828054828255906000526020600020908101928215611040579160200282015b8281111561104057825182546001600160a01b0319166001600160a01b0390911617825560209092019160019091019061100b565b50610771929150611087565b828054828255906000526020600020908101928215611040579160200282015b8281111561104057825182559160200191906001019061106c565b5b808211156107715760008155600101611088565b634e487b7160e01b600052603260045260246000fd5b80356001600160a01b03811681146110c957600080fd5b919050565b6000602082840312156110e057600080fd5b6110e9826110b2565b9392505050565b6020808252825182820181905260009190848201906040850190845b818110156111285783518352928401929184019160010161110c565b50909695505050505050565b60006020828403121561114657600080fd5b5035919050565b6020808252825182820181905260009190848201906040850190845b818110156111285783516001600160a01b031683529284019291840191600101611169565b634e487b7160e01b600052604160045260246000fd5b604051601f8201601f1916810167ffffffffffffffff811182821017156111cd576111cd61118e565b604052919050565b600067ffffffffffffffff8211156111ef576111ef61118e565b5060051b60200190565b600082601f83011261120a57600080fd5b8135602061121f61121a836111d5565b6111a4565b82815260059290921b8401810191818101908684111561123e57600080fd5b8286015b848110156112595780358352918301918301611242565b509695505050505050565b6000806040838503121561127757600080fd5b823567ffffffffffffffff8082111561128f57600080fd5b818501915085601f8301126112a357600080fd5b813560206112b361121a836111d5565b82815260059290921b840181019181810190898411156112d257600080fd5b948201945b838610156112f7576112e8866110b2565b825294820194908201906112d7565b9650508601359250508082111561130d57600080fd5b5061131a858286016111f9565b9150509250929050565b634e487b7160e01b600052601160045260246000fd5b60006001820161134c5761134c611324565b5060010190565b6000821982111561136657611366611324565b500190565b6020808252600990820152682737ba1037bbb732b960b91b60408201526060019056fea26469706673582212209fe48d9311e5370c399fc28541107773a08b5f789c5700366247e885f3e3c44064736f6c634300080d0033",
    "linkReferences": {}
  },
  "methodIdentifiers": {
    "active()": "02fb0c5e",
    "activeToggle()": "ac6a990f",
    "addressToDeposit(address)": "0a419e04",
    "addressToMintCount(address)": "f75da1b3",
    "claimedDeposit(uint256)": "b12c3a88",
    "depositlist(uint256)": "4de2673d",
    "getClaimedDepositList()": "2610672e",
    "getCountMapping(address)": "e412bad1",
    "getDepositMapping(address)": "effbd6a1",
    "getIndex()": "81045ead",
    "getValidDeposit(uint256)": "596ea40a",
    "getWhitelist()": "d01f63f5",
    "isDepositlisted()": "f5b8dcee",
    "isWhitelisted()": "611b4095",
    "redeem()": "be040fb0",
    "transferBalance()": "66adeb8c",
    "updateLists(address[],uint256[])": "dbd3484c",
    "whitelist(uint256)": "7ebd1b30"
  },
  "id": 6
}