{
  "abi": [
    {
      "inputs": [],
      "stateMutability": "nonpayable",
      "type": "constructor"
    },
    {
      "stateMutability": "payable",
      "type": "fallback"
    },
    {
      "inputs": [],
      "name": "active",
      "outputs": [
        {
          "internalType": "bool",
          "name": "",
          "type": "bool"
        }
      ],
      "stateMutability": "view",
      "type": "function"
    },
    {
      "inputs": [],
      "name": "activeToggle",
      "outputs": [],
      "stateMutability": "nonpayable",
      "type": "function"
    },
    {
      "inputs": [
        {
          "internalType": "address",
          "name": "",
          "type": "address"
        }
      ],
      "name": "addressToDeposit",
      "outputs": [
        {
          "internalType": "uint256",
          "name": "",
          "type": "uint256"
        }
      ],
      "stateMutability": "view",
      "type": "function"
    },
    {
      "inputs": [
        {
          "internalType": "address",
          "name": "",
          "type": "address"
        }
      ],
      "name": "addressToMintCount",
      "outputs": [
        {
          "internalType": "uint256",
          "name": "",
          "type": "uint256"
        }
      ],
      "stateMutability": "view",
      "type": "function"
    },
    {
      "inputs": [
        {
          "internalType": "uint256",
          "name": "",
          "type": "uint256"
        }
      ],
      "name": "claimedDeposit",
      "outputs": [
        {
          "internalType": "uint256",
          "name": "",
          "type": "uint256"
        }
      ],
      "stateMutability": "view",
      "type": "function"
    },
    {
      "inputs": [
        {
          "internalType": "uint256",
          "name": "",
          "type": "uint256"
        }
      ],
      "name": "depositlist",
      "outputs": [
        {
          "internalType": "address",
          "name": "",
          "type": "address"
        }
      ],
      "stateMutability": "view",
      "type": "function"
    },
    {
      "inputs": [],
      "name": "getClaimedDepositList",
      "outputs": [
        {
          "internalType": "uint256[]",
          "name": "",
          "type": "uint256[]"
        }
      ],
      "stateMutability": "view",
      "type": "function"
    },
    {
      "inputs": [
        {
          "internalType": "address",
          "name": "a",
          "type": "address"
        }
      ],
      "name": "getCountMapping",
      "outputs": [
        {
          "internalType": "uint256",
          "name": "",
          "type": "uint256"
        }
      ],
      "stateMutability": "view",
      "type": "function"
    },
    {
      "inputs": [],
      "name": "getDepositList",
      "outputs": [
        {
          "internalType": "address[]",
          "name": "",
          "type": "address[]"
        }
      ],
      "stateMutability": "view",
      "type": "function"
    },
    {
      "inputs": [
        {
          "internalType": "address",
          "name": "a",
          "type": "address"
        }
      ],
      "name": "getDepositMapping",
      "outputs": [
        {
          "internalType": "uint256",
          "name": "",
          "type": "uint256"
        }
      ],
      "stateMutability": "view",
      "type": "function"
    },
    {
      "inputs": [],
      "name": "getDepositlistIndex",
      "outputs": [
        {
          "internalType": "uint256",
          "name": "index",
          "type": "uint256"
        }
      ],
      "stateMutability": "view",
      "type": "function"
    },
    {
      "inputs": [
        {
          "internalType": "uint256",
          "name": "val",
          "type": "uint256"
        }
      ],
      "name": "getValidDeposit",
      "outputs": [
        {
          "internalType": "bool",
          "name": "valid",
          "type": "bool"
        },
        {
          "internalType": "uint256",
          "name": "count",
          "type": "uint256"
        }
      ],
      "stateMutability": "view",
      "type": "function"
    },
    {
      "inputs": [],
      "name": "getWhitelist",
      "outputs": [
        {
          "internalType": "address[]",
          "name": "",
          "type": "address[]"
        }
      ],
      "stateMutability": "view",
      "type": "function"
    },
    {
      "inputs": [],
      "name": "getWhitelistIndex",
      "outputs": [
        {
          "internalType": "uint256",
          "name": "index",
          "type": "uint256"
        }
      ],
      "stateMutability": "view",
      "type": "function"
    },
    {
      "inputs": [],
      "name": "isDepositlisted",
      "outputs": [
        {
          "internalType": "bool",
          "name": "funder",
          "type": "bool"
        }
      ],
      "stateMutability": "view",
      "type": "function"
    },
    {
      "inputs": [],
      "name": "isRefundlisted",
      "outputs": [
        {
          "internalType": "bool",
          "name": "refunded",
          "type": "bool"
        }
      ],
      "stateMutability": "view",
      "type": "function"
    },
    {
      "inputs": [],
      "name": "isWhitelisted",
      "outputs": [
        {
          "internalType": "bool",
          "name": "whitelisted",
          "type": "bool"
        }
      ],
      "stateMutability": "view",
      "type": "function"
    },
    {
      "inputs": [],
      "name": "refund",
      "outputs": [],
      "stateMutability": "nonpayable",
      "type": "function"
    },
    {
      "inputs": [
        {
          "internalType": "uint256",
          "name": "",
          "type": "uint256"
        }
      ],
      "name": "refundlist",
      "outputs": [
        {
          "internalType": "address",
          "name": "",
          "type": "address"
        }
      ],
      "stateMutability": "view",
      "type": "function"
    },
    {
      "inputs": [
        {
          "internalType": "address",
          "name": "to",
          "type": "address"
        }
      ],
      "name": "transferBalance",
      "outputs": [],
      "stateMutability": "nonpayable",
      "type": "function"
    },
    {
      "inputs": [
        {
          "internalType": "address[]",
          "name": "newWhitelist",
          "type": "address[]"
        },
        {
          "internalType": "uint256[]",
          "name": "newClaimedDeposit",
          "type": "uint256[]"
        }
      ],
      "name": "updateLists",
      "outputs": [],
      "stateMutability": "nonpayable",
      "type": "function"
    },
    {
      "inputs": [
        {
          "internalType": "uint256",
          "name": "",
          "type": "uint256"
        }
      ],
      "name": "whitelist",
      "outputs": [
        {
          "internalType": "address",
          "name": "",
          "type": "address"
        }
      ],
      "stateMutability": "view",
      "type": "function"
    }
  ],
  "bytecode": {
    "object": "0x6000805461ff001916610100908117909155610c2060405273d92da91c48cae1d8309da06150751c11d049613e6080908152732ad67ba7a0bc86977741b1e797277b246c7fb0e860a05273d360b14a3c7237ae0e03164552fd914b275a067960c05273bb52453bf1b11f0e9efdaa088e786daf4a85997d60e0527398189b35a3a8b736ec9a12da5767b9d1f58ed886909152739b0223084d36937e45b43cb99941c701be50214261012052731c3c5305eeaf72b3d6d20d1c20bcbc894ffeafee61014052736f9e433d7e0ff7169871d54e00bf6878a7de555b6101605273f79765d064b86648c7c01f55f9ecb5ec5d3a7d4b61018052733ee39ad4295b579ddee749d63bf0d7507676f4d46101a0527338c1c9c6d2b90f820c9677f931792fe82760aac26101c0527336b95d4b0233cb14a420e16a386c7150eaa1ab556101e052735b115fb974ee8215b51ac02bab3ca479f6683a39610200527336680ceaea6854f1e3eb609aff48545d4f6746e76102205273d71c042312fd8800ade805e14f746a58beac569a61024052733a2d9c943045e2ef73301bcd22ab574720611a906102605273144c02f5370be541e123fa5cf9083e30ab7c5a0461028052738d1e0459651cfa22007d5890c8346bb766cbe3b16102a052734556c171dc77da167cad8b42ebccb35a9984f3e46102c05273bf598d7755af45592c3b985477c147365b2daeba6102e05273950cd838d9e5994d197967328e5ac0ae8fd5d9ad6103005273289d6ac47bf1ebe497dcddb934ff43af8e4b84c861032052739c3196f8c884c2f7cb2bb3c769fff8d7e479cd826103405273a15fab718b0cb25f82d61f58c014bd88a87eeed2610360527351764790b30b49358a3b2e6f30ad77484b885b9061038052735f28648c01eda3ac15a2ce1759f7cd7a36c874d36103a052736bc411f602253f5a9946818ca72c8932ace7a9376103c052730e3d909b726cbe8ffdc0da161a30245be403a7c56103e052738638907b822893358b7574a04c477b51ac782b4f6104005273a91d9ab328779591e999fecd16816abedc85b7ff61042052738d6fe1ea16811ea76a39b5cc0481872e751863116104405273654acb9bf947dce25f06c73976037270c460007d61046052732a9e47aed3225606b2c0a5b341cdc5ef4a527ddb6104805273c59d029c4561493be0da9d068f825be375c7648b6104a05273a5dcedc1a461d8b1ed64dfdeb4fbfb0d5493c27b6104c052735e679d5903809a62d6dabe2ecfd58a9722d34c796104e0527394705a9d675daa924f9190eca4c05ed6b12d534561050052732a15f1fed563c9c815eb510dcb4a3475a087894d61052052739c4f52cf0f6537031d64b0c8ba7ea1729f0d108761054052730e55c20d2bc315e879e602a1da70cdf46eab57b661056052732259c4e885f8ea070c9efb9451ffe5fc4e82eed66105805273688847fc6addd42f176080ed2081bbb67c2764086105a05273a6ea80bdea3786e915cc951a4d0962be884d5e116105c052730dfe0a0943009bb6a68c1ab9e3622a950f9632856105e052730f615319d7ceed5801faf6b13c9034de9223a3ec6106005273ff5dcd67b90b51eddb8b2cb4fc7689e48ac903a26106205273c3b4be23e868822baa198ee3041c9f9e535bf0c1610640527355957f99bc906db62b8c57e0512d57361c4e296661066052739007d5c8c0f2e772d5df9447562da53d302766ed6106805273fe223c26d16bae2ede49a634da3710a8e5b32c326106a05273d1dd546b28925f3d61461399807135bbfc75a6bb6106c052734c843a3d077c353533b81ad2435268c8611fdf166106e05273c1dd86f0ec0d6fc897fbb64bf0559570595a930d6107005273e780a34002214698722c7ef0d60da1087591388761072052732a0897c724808567e161f458c4f7521c8ada85566107405273ff4e10c59734b2f20a39327c3661e0dcba0db92361076052734c021ba2d12fdb42061bb3181cc71debd1b0c4266107805273076c4dfabfb34ebe8a4336deb8b222f6d128c2616107a052735f25ce9fef6762b73ed117f16456524c0ddfa7e26107c052735df459f917168b64c0cd9187968527d31f1b3e3c6107e052736ac029ae2e792a56354c544347f38d68db6184926108005273d0ab0300ae36001fd8c3fd7712b6173ccbfd15546108205273220ee648ebe5bb4fe52cb24898d51e4449efa42b610840527382c1e79afe4cfa5b29795e3de0e7f203c793e6c161086052733d844c391e7806157ae42d653d1d7e2919926a6161088052737776fed706a0e761a41a08cd3607e646ef780a686108a05273ce0776ad81694e57ea4d2b6b39f86338a8b733816108c0527385f3d5456a48e09c4b9feea00e7f3567a848b4e46108e05273296a012981c1c9f5665c3ddca84c42173fe75a6e61090052739b5f50146a361f82b1fedf63c5d04d4918a730c36109205273ffcd4c0f81322e19b6edab52ac3375730901661d6109405273c3ae4d28c204fb07b80cdd8b2d9ada361d82992b61096052739785640b43bd182faa0b0fe9b1db036e21d534bb6109805273716c52795d00e45c1476aca40e1ef18153fcf0926109a052735bff3d2435b541e2285738699ed809b736b707376109c05273d0360eaa75e86c43e1fb7c08ac6f1ee6caa0da5d6109e052730fa0e7f46e4b760494ca6e3b3992e4dfb343da95610a005273e6b67036b1a14ff7126717aa4fd0afc6bee4d797610a20527366498b318c0f97edc9c52426f2409024a4c4bd99610a40527307f70642cb786277cc568b359b2d8f3222a4b018610a6052735473d9c09d7c52b980945904039551626fa48a74610a8052738def36ba09af68cec83f89de7a16a6300fd2074d610aa0527364dedaba6199110c86bb30127164933a85977902610ac05273f89ad1af3506a47f08672def43191b291df18677610ae0527393951907913e8c7c79b77bd4e91b2d701d5a8efd610b005273df1458bd1add294acd1892aa52e7da8caf9d3ed5610b205273f25f9ae2b3528bab9c7ae39615b088a4e087f10c610b4052736661280d2363f69a615ae69f57adf936a89644ca610b6052732ed0c280559072d4eaf6f8b71bc277f8de406a7c610b80527396cb84ac416602cec04b6778fa3f8e588e84cc95610ba05273ed4ebcd8d790824708e16ced47aa508887a4328d610bc05273d46f5a31282c4e52c4c30c1b5a24a2df99b5a2d8610be05273550a7b674c50fcb7708abf10a00edb1a8f746894610c00526200093990600590605d62000c87565b5060408051610ba08101825267016345785d8a00008082526702c68af0bb140000602083018190529282018190526706f05b59d3b20000606083018190526080830181905260a08301849052670429d069189e000060c0840181905260e08401839052610100840185905261012084018590526101408401819052610160840181905261018084018190526101a084018590526101c084018390526101e0840183905261020084018190526102208401839052610240840181905267058d15e176280000610260850181905261028085018690526102a085018490526102c085018290526102e08501869052610300850183905261032085018290526103408501869052610360850184905261038085018690526103a085018290526103c085018490526103e08501839052610400850182905261042085018490526104408501829052610460850186905261048085018490526104a085018690526104c085018190526104e08501839052610500850182905261052085018690526105408501869052610560850184905261058085018690526105a085018390526105c085018490526105e08501849052610600850184905261062085018490526106408501829052610660850181905261068085018490526106a085018690526106c085018490526106e08501869052610700850183905261072085018390526107408501839052610760850184905261078085018690526107a085018690526107c085018190526107e08501819052610800850183905261082085018390526108408501869052610860850186905261088085018690526108a085018690526108c085018690526108e0850184905261090085015261092084018290526109408401819052610960840185905261098084018590526109a084018390526109c084018190526109e08401829052610a008401839052610a20840152610a408301849052610a608301829052610a808301849052610aa08301829052610ac08301829052610ae08301849052610b008301829052610b20830193909352610b408201839052610b60820152610b8081019190915262000c5990600690605d62000cf1565b5034801562000c6757600080fd5b506000805462010000600160b01b03191633620100000217905562000d51565b82805482825590600052602060002090810192821562000cdf579160200282015b8281111562000cdf57825182546001600160a01b0319166001600160a01b0390911617825560209092019160019091019062000ca8565b5062000ced92915062000d3a565b5090565b82805482825590600052602060002090810192821562000cdf579160200282015b8281111562000cdf57825182906001600160401b031690559160200191906001019062000d12565b5b8082111562000ced576000815560010162000d3b565b61163e8062000d616000396000f3fe6080604052600436106101355760003560e01c806398ef5591116100ab578063d01f63f51161006f578063d01f63f51461052c578063dbd3484c14610541578063e412bad114610561578063effbd6a114610597578063f5b8dcee146105b7578063f75da1b3146105cc57610135565b806398ef5591146104a05780639ad6da85146104b5578063a87b0cb7146104d5578063ac6a990f146104f7578063b12c3a881461050c57610135565b8063590e1ae3116100fd578063590e1ae3146103e8578063596ea40a146103ff578063611b40951461043657806363b6b31f1461044b5780636eb325841461046b5780637ebd1b301461048057610135565b806302fb0c5e1461030a5780630a419e041461033e5780630ec25f12146103795780632610672e1461038e5780634de2673d146103b0575b600054610100900460ff1661018d5760405162461bcd60e51b81526020600482015260196024820152784465706f73697420436f6e747261637420496e61637469766560381b60448201526064015b60405180910390fd5b6101956105f9565b156101d55760405162461bcd60e51b815260206004820152601060248201526f105b1c9958591e481499599d5b99195960821b6044820152606401610184565b6101dd610660565b61021c5760405162461bcd60e51b815260206004820152601060248201526f139bdd0813db8815da1a5d195b1a5cdd60821b6044820152606401610184565b600080610228346106bf565b91509150816102795760405162461bcd60e51b815260206004820152601b60248201527f496e76616c696420436f6e747269627574696f6e20416d6f756e7400000000006044820152606401610184565b6004805460018181019092557f8a35acfbc15ff81a39ae7d344fd709f28e8600b4aa8c65c6b64bfe7fe36bd19b0180546001600160a01b0319163390811790915560009081526020918252604080822084905560029092522034905560056102df610805565b815481106102ef576102ef611316565b600091825260209091200180546001600160a01b0319169055005b34801561031657600080fd5b5060005461032990610100900460ff1681565b60405190151581526020015b60405180910390f35b34801561034a57600080fd5b5061036b610359366004611348565b60026020526000908152604090205481565b604051908152602001610335565b34801561038557600080fd5b506103296105f9565b34801561039a57600080fd5b506103a36108ad565b604051610335919061136a565b3480156103bc57600080fd5b506103d06103cb3660046113ae565b610905565b6040516001600160a01b039091168152602001610335565b3480156103f457600080fd5b506103fd61092f565b005b34801561040b57600080fd5b5061041f61041a3660046113ae565b6106bf565b604080519215158352602083019190915201610335565b34801561044257600080fd5b50610329610660565b34801561045757600080fd5b506103fd610466366004611348565b610b8e565b34801561047757600080fd5b5061036b610c5c565b34801561048c57600080fd5b506103d061049b3660046113ae565b610d03565b3480156104ac57600080fd5b5061036b610805565b3480156104c157600080fd5b506103d06104d03660046113ae565b610d13565b3480156104e157600080fd5b506104ea610d23565b60405161033591906113c7565b34801561050357600080fd5b506103fd610db5565b34801561051857600080fd5b5061036b6105273660046113ae565b610e02565b34801561053857600080fd5b506104ea610e23565b34801561054d57600080fd5b506103fd61055c3660046114de565b610e83565b34801561056d57600080fd5b5061036b61057c366004611348565b6001600160a01b031660009081526001602052604090205490565b3480156105a357600080fd5b5061036b6105b2366004611348565b610f22565b3480156105c357600080fd5b50610329610f87565b3480156105d857600080fd5b5061036b6105e7366004611348565b60016020526000908152604090205481565b6000805b60035481101561065857336001600160a01b03166003828154811061062457610624611316565b6000918252602090912001546001600160a01b03160361064657600191505090565b80610650816115b4565b9150506105fd565b506000905090565b6000805b60055481101561065857336001600160a01b03166005828154811061068b5761068b611316565b6000918252602090912001546001600160a01b0316036106ad57600191505090565b806106b7816115b4565b915050610664565b60008060066106cc610805565b815481106106dc576106dc611316565b90600052602060002001548311156107505760405162461bcd60e51b815260206004820152603160248201527f436f6e747269627574696f6e2067726561746572207468616e20436c61696d6560448201527064204465706f73697420416d6f756e742160781b6064820152608401610184565b60005b60058110156107f9576040805160a08101825267016345785d8a000081526702c68af0bb1400006020820152670429d069189e00009181019190915267058d15e17628000060608201526706f05b59d3b20000608082015281600581106107bc576107bc611316565b602002015167ffffffffffffffff1684036107e75760016107dd82826115cd565b9250925050915091565b806107f1816115b4565b915050610753565b50600093849350915050565b600061080f610660565b61084e5760405162461bcd60e51b815260206004820152601060248201526f139bdd0813db8815da1a5d195b1a5cdd60821b6044820152606401610184565b60005b6005548110156108a957336001600160a01b03166005828154811061087857610878611316565b6000918252602090912001546001600160a01b03160361089757919050565b806108a1816115b4565b915050610851565b5090565b606060068054806020026020016040519081016040528092919081815260200182805480156108fb57602002820191906000526020600020905b8154815260200190600101908083116108e7575b5050505050905090565b6004818154811061091557600080fd5b6000918252602090912001546001600160a01b0316905081565b60005460ff16156109735760405162461bcd60e51b815260206004820152600e60248201526d4e6f2072652d656e7472616e637960901b6044820152606401610184565b6000805460ff191660011790819055610100900460ff166109d25760405162461bcd60e51b81526020600482015260196024820152784465706f73697420436f6e747261637420496e61637469766560381b6044820152606401610184565b6109da610f87565b610a1c5760405162461bcd60e51b8152602060048201526013602482015272139bdd0813db8811195c1bdcda5d08131a5cdd606a1b6044820152606401610184565b60004711610a785760405162461bcd60e51b815260206004820152602360248201527f4f7574204f662046756e64696e672120506c65617365204e6f74696679205465604482015262616d2160e81b6064820152608401610184565b6004610a82610c5c565b81548110610a9257610a92611316565b600091825260208083209190910180546001600160a01b031990811690915560038054600181019091557fc2575a0e9e593c00f959f8c92f12db2869c3395a3b0502d05e2516446f71f85b018054339216821790558083526002909152604080832054905160006040518083038185875af1925050503d8060008114610b34576040519150601f19603f3d011682016040523d82523d6000602084013e610b39565b606091505b5050905080610b815760405162461bcd60e51b81526020600482015260146024820152732330b4b632b2103a379039b2b7321022ba3432b960611b6044820152606401610184565b506000805460ff19169055565b6000546201000090046001600160a01b03163314610bbe5760405162461bcd60e51b8152600401610184906115e5565b6000816001600160a01b03164760405160006040518083038185875af1925050503d8060008114610c0b576040519150601f19603f3d011682016040523d82523d6000602084013e610c10565b606091505b5050905080610c585760405162461bcd60e51b81526020600482015260146024820152732330b4b632b2103a379039b2b7321022ba3432b960611b6044820152606401610184565b5050565b6000610c66610f87565b610ca85760405162461bcd60e51b8152602060048201526013602482015272139bdd0813db8811195c1bdcda5d08131a5cdd606a1b6044820152606401610184565b60005b6004548110156108a957336001600160a01b031660048281548110610cd257610cd2611316565b6000918252602090912001546001600160a01b031603610cf157919050565b80610cfb816115b4565b915050610cab565b6005818154811061091557600080fd5b6003818154811061091557600080fd5b6000546060906201000090046001600160a01b03163314610d565760405162461bcd60e51b8152600401610184906115e5565b60048054806020026020016040519081016040528092919081815260200182805480156108fb57602002820191906000526020600020905b81546001600160a01b03168152600190910190602001808311610d8e575050505050905090565b6000546201000090046001600160a01b03163314610de55760405162461bcd60e51b8152600401610184906115e5565b6000805461ff001981166101009182900460ff1615909102179055565b60068181548110610e1257600080fd5b600091825260209091200154905081565b606060058054806020026020016040519081016040528092919081815260200182805480156108fb576020028201919060005260206000209081546001600160a01b03168152600190910190602001808311610d8e575050505050905090565b6000546201000090046001600160a01b03163314610eb35760405162461bcd60e51b8152600401610184906115e5565b8051825114610f105760405162461bcd60e51b815260206004820152602360248201527f4c69737473204e6f742053616d65204c656e6774682120504c4541534520434860448201526245434b60e81b6064820152608401610184565b610f1982610fe6565b610c5881611143565b6000610f2c610f87565b610f6b5760405162461bcd60e51b815260206004820152601060248201526f4e6f742041204465706f7369746f722160801b6044820152606401610184565b506001600160a01b031660009081526002602052604090205490565b6000805b60045481101561065857336001600160a01b031660048281548110610fb257610fb2611316565b6000918252602090912001546001600160a01b031603610fd457600191505090565b80610fde816115b4565b915050610f8b565b8051600554600091610ff7916115cd565b67ffffffffffffffff81111561100f5761100f611408565b604051908082528060200260200182016040528015611038578160200160208202803683370190505b50905060005b6005548110156110b5576005818154811061105b5761105b611316565b9060005260206000200160009054906101000a90046001600160a01b031682828151811061108b5761108b611316565b6001600160a01b0390921660209283029190910190910152806110ad816115b4565b91505061103e565b60005b83518110156111295783816110cc816115b4565b9250815181106110de576110de611316565b60200260200101518383806110f2906115b4565b94508151811061110457611104611316565b60200260200101906001600160a01b031690816001600160a01b0316815250506110b8565b825161113c906005906020860190611265565b5050505050565b8051600654600091611154916115cd565b67ffffffffffffffff81111561116c5761116c611408565b604051908082528060200260200182016040528015611195578160200160208202803683370190505b50905060005b6006548110156111f257600681815481106111b8576111b8611316565b90600052602060002001548282815181106111d5576111d5611316565b6020908102919091010152806111ea816115b4565b91505061119b565b60005b8351811015611252578381611209816115b4565b92508151811061121b5761121b611316565b602002602001015183838061122f906115b4565b94508151811061124157611241611316565b6020026020010181815250506111f5565b825161113c9060069060208601906112c6565b8280548282559060005260206000209081019282156112ba579160200282015b828111156112ba57825182546001600160a01b0319166001600160a01b03909116178255602090920191600190910190611285565b506108a9929150611301565b8280548282559060005260206000209081019282156112ba579160200282015b828111156112ba5782518255916020019190600101906112e6565b5b808211156108a95760008155600101611302565b634e487b7160e01b600052603260045260246000fd5b80356001600160a01b038116811461134357600080fd5b919050565b60006020828403121561135a57600080fd5b6113638261132c565b9392505050565b6020808252825182820181905260009190848201906040850190845b818110156113a257835183529284019291840191600101611386565b50909695505050505050565b6000602082840312156113c057600080fd5b5035919050565b6020808252825182820181905260009190848201906040850190845b818110156113a25783516001600160a01b0316835292840192918401916001016113e3565b634e487b7160e01b600052604160045260246000fd5b604051601f8201601f1916810167ffffffffffffffff8111828210171561144757611447611408565b604052919050565b600067ffffffffffffffff82111561146957611469611408565b5060051b60200190565b600082601f83011261148457600080fd5b813560206114996114948361144f565b61141e565b82815260059290921b840181019181810190868411156114b857600080fd5b8286015b848110156114d357803583529183019183016114bc565b509695505050505050565b600080604083850312156114f157600080fd5b823567ffffffffffffffff8082111561150957600080fd5b818501915085601f83011261151d57600080fd5b8135602061152d6114948361144f565b82815260059290921b8401810191818101908984111561154c57600080fd5b948201945b83861015611571576115628661132c565b82529482019490820190611551565b9650508601359250508082111561158757600080fd5b5061159485828601611473565b9150509250929050565b634e487b7160e01b600052601160045260246000fd5b6000600182016115c6576115c661159e565b5060010190565b600082198211156115e0576115e061159e565b500190565b6020808252600990820152682737ba1037bbb732b960b91b60408201526060019056fea26469706673582212202582419d395ab0d9cd0c274e57d2766bf5a3ce3e2df3db843ad14501b4b12b4164736f6c634300080d0033",
    "linkReferences": {}
  },
  "methodIdentifiers": {
    "active()": "02fb0c5e",
    "activeToggle()": "ac6a990f",
    "addressToDeposit(address)": "0a419e04",
    "addressToMintCount(address)": "f75da1b3",
    "claimedDeposit(uint256)": "b12c3a88",
    "depositlist(uint256)": "4de2673d",
    "getClaimedDepositList()": "2610672e",
    "getCountMapping(address)": "e412bad1",
    "getDepositList()": "a87b0cb7",
    "getDepositMapping(address)": "effbd6a1",
    "getDepositlistIndex()": "6eb32584",
    "getValidDeposit(uint256)": "596ea40a",
    "getWhitelist()": "d01f63f5",
    "getWhitelistIndex()": "98ef5591",
    "isDepositlisted()": "f5b8dcee",
    "isRefundlisted()": "0ec25f12",
    "isWhitelisted()": "611b4095",
    "refund()": "590e1ae3",
    "refundlist(uint256)": "9ad6da85",
    "transferBalance(address)": "63b6b31f",
    "updateLists(address[],uint256[])": "dbd3484c",
    "whitelist(uint256)": "7ebd1b30"
  },
  "id": 7
}