{
  "abi": [
    {
      "inputs": [],
      "stateMutability": "nonpayable",
      "type": "constructor"
    },
    {
      "stateMutability": "payable",
      "type": "fallback"
    },
    {
      "inputs": [],
      "name": "active",
      "outputs": [
        {
          "internalType": "bool",
          "name": "",
          "type": "bool"
        }
      ],
      "stateMutability": "view",
      "type": "function"
    },
    {
      "inputs": [],
      "name": "activeToggle",
      "outputs": [],
      "stateMutability": "nonpayable",
      "type": "function"
    },
    {
      "inputs": [
        {
          "internalType": "address",
          "name": "",
          "type": "address"
        }
      ],
      "name": "addressToMintCount",
      "outputs": [
        {
          "internalType": "uint256",
          "name": "",
          "type": "uint256"
        }
      ],
      "stateMutability": "view",
      "type": "function"
    },
    {
      "inputs": [
        {
          "internalType": "uint256",
          "name": "",
          "type": "uint256"
        }
      ],
      "name": "claimedDepositAmount",
      "outputs": [
        {
          "internalType": "uint256",
          "name": "",
          "type": "uint256"
        }
      ],
      "stateMutability": "view",
      "type": "function"
    },
    {
      "inputs": [
        {
          "internalType": "uint256",
          "name": "",
          "type": "uint256"
        }
      ],
      "name": "depositList",
      "outputs": [
        {
          "internalType": "address",
          "name": "",
          "type": "address"
        }
      ],
      "stateMutability": "view",
      "type": "function"
    },
    {
      "inputs": [],
      "name": "getIndex",
      "outputs": [
        {
          "internalType": "uint256",
          "name": "index",
          "type": "uint256"
        }
      ],
      "stateMutability": "view",
      "type": "function"
    },
    {
      "inputs": [
        {
          "internalType": "uint256",
          "name": "val",
          "type": "uint256"
        }
      ],
      "name": "getValidDeposit",
      "outputs": [
        {
          "internalType": "bool",
          "name": "valid",
          "type": "bool"
        },
        {
          "internalType": "uint256",
          "name": "count",
          "type": "uint256"
        }
      ],
      "stateMutability": "view",
      "type": "function"
    },
    {
      "inputs": [],
      "name": "isWhitelisted",
      "outputs": [
        {
          "internalType": "bool",
          "name": "funder",
          "type": "bool"
        }
      ],
      "stateMutability": "view",
      "type": "function"
    },
    {
      "inputs": [],
      "name": "redeem",
      "outputs": [],
      "stateMutability": "nonpayable",
      "type": "function"
    },
    {
      "inputs": [],
      "name": "transferBalance",
      "outputs": [],
      "stateMutability": "nonpayable",
      "type": "function"
    },
    {
      "inputs": [
        {
          "internalType": "address[]",
          "name": "newWhitelist",
          "type": "address[]"
        }
      ],
      "name": "updatewhitelist",
      "outputs": [],
      "stateMutability": "nonpayable",
      "type": "function"
    },
    {
      "inputs": [
        {
          "internalType": "uint256",
          "name": "",
          "type": "uint256"
        }
      ],
      "name": "whitelist",
      "outputs": [
        {
          "internalType": "address",
          "name": "",
          "type": "address"
        }
      ],
      "stateMutability": "view",
      "type": "function"
    }
  ],
  "bytecode": {
    "object": "0x6000805461ff00191661010017905560a0604052600160808181526100279160039190610078565b506040805160208101909152670429d069189e0000815261004c9060049060016100dd565b5034801561005957600080fd5b506000805462010000600160b01b031916336201000002179055610138565b8280548282559060005260206000209081019282156100cd579160200282015b828111156100cd57825182546001600160a01b0319166001600160a01b03909116178255602090920191600190910190610098565b506100d9929150610123565b5090565b8280548282559060005260206000209081019282156100cd579160200282015b828111156100cd57825182906001600160401b03169055916020019190600101906100fd565b5b808211156100d95760008155600101610124565b610c03806101476000396000f3fe6080604052600436106100a75760003560e01c8063ac6a990f11610064578063ac6a990f14610295578063b8ec6678146102aa578063be040fb0146102ca578063d0daf153146102df578063f75da1b3146102ff578063fe87ce7b1461032c576100a7565b806302fb0c5e146101a3578063596ea40a146101d7578063611b40951461020e57806366adeb8c146102235780637ebd1b301461023a57806381045ead14610272575b6100af61034c565b6100f45760405162461bcd60e51b81526020600482015260116024820152704e6f74206f6e2077686974656c6973742160781b60448201526064015b60405180910390fd5b600080610100346103b3565b91509150816101515760405162461bcd60e51b815260206004820152601c60248201527f496e76616c696420636f6e747269627574696f6e20616d6f756e74210000000060448201526064016100eb565b600180548082019091557fb10e2d527612073b26eecdfd717e6a320cf44b4afac2b0732d9fcbe2b7fa0cf60180546001600160a01b031916339081179091556000908152600260205260409020819055005b3480156101af57600080fd5b506000546101c290610100900460ff1681565b60405190151581526020015b60405180910390f35b3480156101e357600080fd5b506101f76101f2366004610a1b565b6103b3565b6040805192151583526020830191909152016101ce565b34801561021a57600080fd5b506101c261034c565b34801561022f57600080fd5b506102386104f9565b005b34801561024657600080fd5b5061025a610255366004610a1b565b6105cb565b6040516001600160a01b0390911681526020016101ce565b34801561027e57600080fd5b506102876105f5565b6040519081526020016101ce565b3480156102a157600080fd5b5061023861069d565b3480156102b657600080fd5b5061025a6102c5366004610a1b565b6106ea565b3480156102d657600080fd5b506102386106fa565b3480156102eb57600080fd5b506102386102fa366004610a66565b610860565b34801561030b57600080fd5b5061028761031a366004610b2b565b60026020526000908152604090205481565b34801561033857600080fd5b50610287610347366004610a1b565b610989565b6000805b6003548110156103ab57336001600160a01b03166003828154811061037757610377610b4d565b6000918252602090912001546001600160a01b03160361039957600191505090565b806103a381610b79565b915050610350565b506000905090565b60008060046103c06105f5565b815481106103d0576103d0610b4d565b90600052602060002001548311156104445760405162461bcd60e51b815260206004820152603160248201527f436f6e747269627574696f6e2067726561746572207468616e20436c61696d6560448201527064204465706f73697420416d6f756e742160781b60648201526084016100eb565b60005b60058110156104ed576040805160a08101825267016345785d8a000081526702c68af0bb1400006020820152670429d069189e00009181019190915267058d15e17628000060608201526706f05b59d3b20000608082015281600581106104b0576104b0610b4d565b602002015167ffffffffffffffff1684036104db5760016104d18282610b92565b9250925050915091565b806104e581610b79565b915050610447565b50600093849350915050565b6000546201000090046001600160a01b031633146105295760405162461bcd60e51b81526004016100eb90610baa565b60008054604051620100009091046001600160a01b03169047908381818185875af1925050503d806000811461057b576040519150601f19603f3d011682016040523d82523d6000602084013e610580565b606091505b50509050806105c85760405162461bcd60e51b81526020600482015260146024820152732330b4b632b2103a379039b2b7321022ba3432b960611b60448201526064016100eb565b50565b600381815481106105db57600080fd5b6000918252602090912001546001600160a01b0316905081565b60006105ff61034c565b61063e5760405162461bcd60e51b815260206004820152601060248201526f139bdd0813db8815da1a5d195b1a5cdd60821b60448201526064016100eb565b60005b60035481101561069957336001600160a01b03166003828154811061066857610668610b4d565b6000918252602090912001546001600160a01b03160361068757919050565b8061069181610b79565b915050610641565b5090565b6000546201000090046001600160a01b031633146106cd5760405162461bcd60e51b81526004016100eb90610baa565b6000805461ff001981166101009182900460ff1615909102179055565b600181815481106105db57600080fd5b60005460ff161561073e5760405162461bcd60e51b815260206004820152600e60248201526d4e6f2072652d656e7472616e637960901b60448201526064016100eb565b6000805460ff1916600117905561075361034c565b6107925760405162461bcd60e51b815260206004820152601060248201526f4e6f742077686974656c69737465642160801b60448201526064016100eb565b600047116107ee5760405162461bcd60e51b815260206004820152602360248201527f4f7574206f662046756e64696e672120506c65617365204e6f74696679205465604482015262616d2160e81b60648201526084016100eb565b600054610100900460ff166108545760405162461bcd60e51b815260206004820152602660248201527f526564656d7074696f6e206973206e6f742063757272656e746c7920617661696044820152656c61626c652160d01b60648201526084016100eb565b6000805460ff19169055565b6000546201000090046001600160a01b031633146108905760405162461bcd60e51b81526004016100eb90610baa565b606060005b60035481101561090c57600381815481106108b2576108b2610b4d565b9060005260206000200160009054906101000a90046001600160a01b03168282815181106108e2576108e2610b4d565b6001600160a01b03909216602092830291909101909101528061090481610b79565b915050610895565b506003545b82518110156109705782818151811061092c5761092c610b4d565b602002602001015182828151811061094657610946610b4d565b6001600160a01b03909216602092830291909101909101528061096881610b79565b915050610911565b5080516109849060039060208401906109aa565b505050565b6004818154811061099957600080fd5b600091825260209091200154905081565b8280548282559060005260206000209081019282156109ff579160200282015b828111156109ff57825182546001600160a01b0319166001600160a01b039091161782556020909201916001909101906109ca565b506106999291505b808211156106995760008155600101610a07565b600060208284031215610a2d57600080fd5b5035919050565b634e487b7160e01b600052604160045260246000fd5b80356001600160a01b0381168114610a6157600080fd5b919050565b60006020808385031215610a7957600080fd5b823567ffffffffffffffff80821115610a9157600080fd5b818501915085601f830112610aa557600080fd5b813581811115610ab757610ab7610a34565b8060051b604051601f19603f83011681018181108582111715610adc57610adc610a34565b604052918252848201925083810185019188831115610afa57600080fd5b938501935b82851015610b1f57610b1085610a4a565b84529385019392850192610aff565b98975050505050505050565b600060208284031215610b3d57600080fd5b610b4682610a4a565b9392505050565b634e487b7160e01b600052603260045260246000fd5b634e487b7160e01b600052601160045260246000fd5b600060018201610b8b57610b8b610b63565b5060010190565b60008219821115610ba557610ba5610b63565b500190565b6020808252600990820152682737ba1037bbb732b960b91b60408201526060019056fea26469706673582212209dab88e6f037807d2336423361355662d966c784871284b92837a997c7aab8e664736f6c634300080d0033",
    "linkReferences": {}
  },
  "methodIdentifiers": {
    "active()": "02fb0c5e",
    "activeToggle()": "ac6a990f",
    "addressToMintCount(address)": "f75da1b3",
    "claimedDepositAmount(uint256)": "fe87ce7b",
    "depositList(uint256)": "b8ec6678",
    "getIndex()": "81045ead",
    "getValidDeposit(uint256)": "596ea40a",
    "isWhitelisted()": "611b4095",
    "redeem()": "be040fb0",
    "transferBalance()": "66adeb8c",
    "updatewhitelist(address[])": "d0daf153",
    "whitelist(uint256)": "7ebd1b30"
  },
  "id": 6
}